{
  "contractName": "AuctionFactory",
  "abi": [
    {
      "anonymous": false,
      "inputs": [
        {
          "indexed": false,
          "internalType": "address",
          "name": "newContractAddress",
          "type": "address"
        }
      ],
      "name": "ContractCreated",
      "type": "event"
    },
    {
      "inputs": [
        {
          "internalType": "uint256",
          "name": "",
          "type": "uint256"
        }
      ],
      "name": "auctions",
      "outputs": [
        {
          "internalType": "contract Auction",
          "name": "",
          "type": "address"
        }
      ],
      "stateMutability": "view",
      "type": "function",
      "constant": true
    },
    {
      "inputs": [
        {
          "internalType": "address",
          "name": "_nft",
          "type": "address"
        },
        {
          "internalType": "uint256",
          "name": "_nftId",
          "type": "uint256"
        },
        {
          "internalType": "uint256",
          "name": "_startingBid",
          "type": "uint256"
        },
        {
          "internalType": "uint256",
          "name": "_increment",
          "type": "uint256"
        },
        {
          "internalType": "uint256",
          "name": "_duration",
          "type": "uint256"
        }
      ],
      "name": "createNewAuction",
      "outputs": [],
      "stateMutability": "nonpayable",
      "type": "function"
    },
    {
      "inputs": [],
      "name": "getAuctions",
      "outputs": [
        {
          "internalType": "contract Auction[]",
          "name": "_auctions",
          "type": "address[]"
        }
      ],
      "stateMutability": "view",
      "type": "function",
      "constant": true
    }
  ],
  "bytecode": "0x608060405234801561001057600080fd5b50611411806100206000396000f3fe608060405234801561001057600080fd5b50600436106100415760003560e01c80630dde4fe214610046578063571a26a01461005b578063d7c069191461008b575b600080fd5b610059610054366004610289565b6100a0565b005b61006e6100693660046102d9565b61018a565b6040516001600160a01b0390911681526020015b60405180910390f35b6100936101b4565b60405161008291906102f2565b60003386868686866040516100b49061027c565b6001600160a01b03968716815295909416602086015260408501929092526060840152608083015260a082015260c001604051809103906000f080158015610100573d6000803e3d6000fd5b50600080546001810182559080527f290decd9548b62a8d60345a988386fc84ba6bc95484008f6362f93160ef3e5630180546001600160a01b0319166001600160a01b0383169081179091556040519081529091507fcf78cf0d6f3d8371e1075c69c492ab4ec5d8cf23a1a239b6a51a1d00be7ca3129060200160405180910390a1505050505050565b6000818154811061019a57600080fd5b6000918252602090912001546001600160a01b0316905081565b60005460609067ffffffffffffffff8111156101d2576101d261033f565b6040519080825280602002602001820160405280156101fb578160200160208202803683370190505b50905060005b600054811015610278576000818154811061021e5761021e610355565b9060005260206000200160009054906101000a90046001600160a01b031682828151811061024e5761024e610355565b6001600160a01b0390921660209283029190910190910152806102708161036b565b915050610201565b5090565b6110498061039383390190565b600080600080600060a086880312156102a157600080fd5b85356001600160a01b03811681146102b857600080fd5b97602087013597506040870135966060810135965060800135945092505050565b6000602082840312156102eb57600080fd5b5035919050565b6020808252825182820181905260009190848201906040850190845b818110156103335783516001600160a01b03168352928401929184019160010161030e565b50909695505050505050565b634e487b7160e01b600052604160045260246000fd5b634e487b7160e01b600052603260045260246000fd5b60006001820161038b57634e487b7160e01b600052601160045260246000fd5b506001019056fe60a060405234801561001057600080fd5b5060405161104938038061104983398101604081905261002f9161018f565b6001600055826100925760405162461bcd60e51b8152602060048201526024808201527f5374617274696e6720626964206d7573742062652067726561746572207468616044820152636e20302160e01b60648201526084015b60405180910390fd5b600082116100ec5760405162461bcd60e51b815260206004820152602160248201527f496e6372656d656e74206d7573742062652067726561746572207468616e20306044820152602160f81b6064820152608401610089565b6000811161013c5760405162461bcd60e51b815260206004820181905260248201527f4475726174696f6e206d7573742062652067726561746572207468616e2030216044820152606401610089565b6001600160a01b03958616608052600892909255600555600355600680546001600160a01b03191692909316919091179091556007556101ed565b6001600160a01b038116811461018c57600080fd5b50565b60008060008060008060c087890312156101a857600080fd5b86516101b381610177565b60208801519096506101c481610177565b6040880151606089015160808a015160a0909a0151989b929a5090989097909650945092505050565b608051610e1e61022b6000396000818161012001528181610213015281816104c1015281816108d001528181610ba70152610c780152610e1e6000f3fe6080604052600436106101095760003560e01c80637cc3ae8c11610095578063c6bc518211610064578063c6bc518214610371578063c744656514610387578063d09de08a1461039d578063d57bde79146103b3578063efbe1c1c146103c957600080fd5b80637cc3ae8c1461031157806391f901571461032757806398d5fdca14610347578063be9a65551461035c57600080fd5b80631f2698ab116100dc5780631f2698ab146101bc578063370158ea146101d65780633ccfd60b146102bc57806347ccca02146102c457806362ea82db146102e457600080fd5b806308551a531461010e5780630fb5a6b41461015f57806312fa6feb146101835780631998aeef146101b2575b600080fd5b34801561011a57600080fd5b506101427f000000000000000000000000000000000000000000000000000000000000000081565b6040516001600160a01b0390911681526020015b60405180910390f35b34801561016b57600080fd5b5061017560035481565b604051908152602001610156565b34801561018f57600080fd5b506001546101a290610100900460ff1681565b6040519015158152602001610156565b6101ba6103de565b005b3480156101c857600080fd5b506001546101a29060ff1681565b3480156101e257600080fd5b50610250600954600254600354600454600554600854600754336000908152600a60205260409020546001546006547f00000000000000000000000000000000000000000000000000000000000000009a6001600160a01b039a8b169a60ff80851694610100900416921690565b604080516001600160a01b039d8e1681529b8d1660208d01528b019990995260608a0197909752608089019590955260a088019390935260c087019190915260e08601526101008501521515610120840152151561014083015290911661016082015261018001610156565b6101ba61068b565b3480156102d057600080fd5b50600654610142906001600160a01b031681565b3480156102f057600080fd5b506101756102ff366004610d92565b600a6020526000908152604090205481565b34801561031d57600080fd5b5061017560045481565b34801561033357600080fd5b50600954610142906001600160a01b031681565b34801561035357600080fd5b50600854610175565b34801561036857600080fd5b506101ba610872565b34801561037d57600080fd5b5061017560075481565b34801561039357600080fd5b5061017560025481565b3480156103a957600080fd5b5061017560055481565b3480156103bf57600080fd5b5061017560085481565b3480156103d557600080fd5b506101ba610a06565b60015460ff1661042c5760405162461bcd60e51b815260206004820152601460248201527341756374696f6e206e6f7420737461727465642160601b60448201526064015b60405180910390fd5b600154610100900460ff16156104755760405162461bcd60e51b815260206004820152600e60248201526d41756374696f6e20656e6465642160901b6044820152606401610423565b60045442106104b75760405162461bcd60e51b815260206004820152600e60248201526d41756374696f6e20656e6465642160901b6044820152606401610423565b6001600160a01b037f00000000000000000000000000000000000000000000000000000000000000001633036105255760405162461bcd60e51b8152602060048201526013602482015272596f7520617265207468652073656c6c65722160681b6044820152606401610423565b6009546001600160a01b031615610593576005543410156105935760405162461bcd60e51b815260206004820152602260248201527f496e73756666696369656e742062696420616d6f756e7420696e6372656d656e604482015261742160f01b6064820152608401610423565b600854336000908152600a60205260409020546105b09034610dc2565b1161060b5760405162461bcd60e51b815260206004820152602560248201527f426964206d7573742062652067726561746572207468616e2068696768657374604482015264206269642160d81b6064820152608401610423565b336000908152600a60205260409020546106259034610dc2565b6008819055336000818152600a602052604090819020839055600980546001600160a01b031916831790555190917fe684a55f31b79eca403df938249029212a5925ec6be8012e099b45bc1019e5d29161068191815260200190565b60405180910390a2565b610693610d39565b60015460ff166106dc5760405162461bcd60e51b815260206004820152601460248201527341756374696f6e206e6f7420737461727465642160601b6044820152606401610423565b6009546001600160a01b031633036107365760405162461bcd60e51b815260206004820152601f60248201527f48696768657374206269646465722063616e6e6f742077697468647261772e006044820152606401610423565b336000908152600a6020526040902054806107935760405162461bcd60e51b815260206004820152601760248201527f4e6f2062616c616e636520746f2077697468647261772e0000000000000000006044820152606401610423565b336000818152600a60205260408082208290555190919083908381818185875af1925050503d80600081146107e4576040519150601f19603f3d011682016040523d82523d6000602084013e6107e9565b606091505b505090508061082f5760405162461bcd60e51b8152602060048201526012602482015271436f756c64206e6f7420776974686472617760701b6044820152606401610423565b60405182815233907f884edad9ce6fa2440d8a54cc123490eb96d2768479d49ff9c7366125a94243649060200160405180910390a250506108706001600055565b565b60015460ff16156108c55760405162461bcd60e51b815260206004820152601860248201527f41756374696f6e20616c726561647920737461727465642100000000000000006044820152606401610423565b336001600160a01b037f0000000000000000000000000000000000000000000000000000000000000000161461094c5760405162461bcd60e51b815260206004820152602660248201527f596f7520617265206e6f7420746865206f776e6572206f6620746869732061756044820152656374696f6e2160d01b6064820152608401610423565b6006546007546040516323b872dd60e01b815233600482015230602482015260448101919091526001600160a01b03909116906323b872dd90606401600060405180830381600087803b1580156109a257600080fd5b505af11580156109b6573d6000803e3d6000fd5b50506001805460ff19168117905550504260028190556003546109d891610dc2565b6004556040517f1b55ba3aa851a46be3b365aee5b5c140edd620d578922f3e8466d2cbd96f954b90600090a1565b610a0e610d39565b60015460ff16610a605760405162461bcd60e51b815260206004820152601860248201527f596f75206e65656420746f2073746172742066697273742100000000000000006044820152606401610423565b600454421015610ab25760405162461bcd60e51b815260206004820152601960248201527f41756374696f6e206973207374696c6c206f6e676f696e6721000000000000006044820152606401610423565b600154610100900460ff1615610b035760405162461bcd60e51b815260206004820152601660248201527541756374696f6e20616c726561647920656e6465642160501b6044820152606401610423565b6001805461ff0019166101001790556009546001600160a01b031615610c55576006546009546007546040516323b872dd60e01b81523060048201526001600160a01b03928316602482015260448101919091529116906323b872dd90606401600060405180830381600087803b158015610b7d57600080fd5b505af1158015610b91573d6000803e3d6000fd5b5050600854604051600093506001600160a01b037f00000000000000000000000000000000000000000000000000000000000000001692508381818185875af1925050503d8060008114610c01576040519150601f19603f3d011682016040523d82523d6000602084013e610c06565b606091505b5050905080610c4f5760405162461bcd60e51b8152602060048201526015602482015274436f756c64206e6f74207061792073656c6c65722160581b6044820152606401610423565b50610ce5565b6006546007546040516323b872dd60e01b81523060048201526001600160a01b037f00000000000000000000000000000000000000000000000000000000000000008116602483015260448201929092529116906323b872dd90606401600060405180830381600087803b158015610ccc57600080fd5b505af1158015610ce0573d6000803e3d6000fd5b505050505b600954600854604080516001600160a01b03909316835260208301919091527f7d7570b046e5ead3a4f3fbc9fa2445113625a1e79823776146316bafed6b8cc5910160405180910390a16108706001600055565b600260005403610d8b5760405162461bcd60e51b815260206004820152601f60248201527f5265656e7472616e637947756172643a207265656e7472616e742063616c6c006044820152606401610423565b6002600055565b600060208284031215610da457600080fd5b81356001600160a01b0381168114610dbb57600080fd5b9392505050565b60008219821115610de357634e487b7160e01b600052601160045260246000fd5b50019056fea26469706673582212206d50152131b75afa6fd65d97f272c59d61770f69a5606decee5dbf433a4df9c364736f6c634300080e0033a26469706673582212200cb14a0968926a6c98f68d4f46335cfda1bcb842c5f11946fcf7ac80479feb5c64736f6c634300080e0033",
  "immutableReferences": {},
  "source": "// SPDX-License-Identifier: MIT\npragma solidity >=0.7.0 <0.9.0;\n\nimport \"./Auction.sol\";\n\ncontract AuctionFactory {\n    Auction[] public auctions;\n    event ContractCreated(address newContractAddress);\n\n    /**\n     * @dev Creates a new auction contract.\n     * @param _nft The address where the MintNFT contract is deployed to.\n     * @param _nftId The ID of the NFT to be auctioned.\n     * @param _startingBid The starting bid amount for the auction.\n     * @param _increment The bid increment amount for each bid.\n     * @param _duration The duration of the auction in seconds.\n     */\n    function createNewAuction(\n        address _nft,\n        uint256 _nftId,\n        uint256 _startingBid,\n        uint256 _increment,\n        uint256 _duration\n    ) public {\n        Auction auction = new Auction(\n            msg.sender,\n            IERC721(_nft),\n            _nftId,\n            _startingBid,\n            _increment,\n            _duration\n        );\n        auctions.push(auction);\n        emit ContractCreated(address(auction));\n    }\n\n    /**\n     * @dev Returns an array of all created auction contracts.\n     * @return _auctions An array of Auction contracts.\n     */\n    function getAuctions() external view returns (Auction[] memory _auctions) {\n        _auctions = new Auction[](auctions.length);\n        for (uint256 i = 0; i < auctions.length; i++) {\n            _auctions[i] = auctions[i];\n        }\n    }\n}\n",
  "sourcePath": "/home/peilunnn/Downloads/Internship Projects/gcp-dapp-auction/truffle/contracts/AuctionFactory.sol",
  "compiler": {
    "name": "solc",
    "version": "0.8.14+commit.80d49f37.Emscripten.clang"
  },
  "schemaVersion": "3.4.14",
  "updatedAt": "2023-07-11T05:58:47.925Z",
  "networkType": "ethereum",
  "devdoc": {
    "kind": "dev",
    "methods": {
      "createNewAuction(address,uint256,uint256,uint256,uint256)": {
        "details": "Creates a new auction contract.",
        "params": {
          "_duration": "The duration of the auction in seconds.",
          "_increment": "The bid increment amount for each bid.",
          "_nft": "The address where the MintNFT contract is deployed to.",
          "_nftId": "The ID of the NFT to be auctioned.",
          "_startingBid": "The starting bid amount for the auction."
        }
      },
      "getAuctions()": {
        "details": "Returns an array of all created auction contracts.",
        "returns": {
          "_auctions": "An array of Auction contracts."
        }
      }
    },
    "version": 1
  },
  "userdoc": {
    "kind": "user",
    "methods": {},
    "version": 1
  }
}