{
  "contractName": "Auction",
  "abi": [
    {
      "inputs": [
        {
          "internalType": "address",
          "name": "sender",
          "type": "address"
        },
        {
          "internalType": "contract IERC721",
          "name": "_nft",
          "type": "address"
        },
        {
          "internalType": "uint256",
          "name": "_nftId",
          "type": "uint256"
        },
        {
          "internalType": "uint256",
          "name": "_startingBid",
          "type": "uint256"
        },
        {
          "internalType": "uint256",
          "name": "_increment",
          "type": "uint256"
        },
        {
          "internalType": "uint256",
          "name": "_duration",
          "type": "uint256"
        }
      ],
      "stateMutability": "nonpayable",
      "type": "constructor"
    },
    {
      "anonymous": false,
      "inputs": [
        {
          "indexed": true,
          "internalType": "address",
          "name": "sender",
          "type": "address"
        },
        {
          "indexed": false,
          "internalType": "uint256",
          "name": "amount",
          "type": "uint256"
        }
      ],
      "name": "Bid",
      "type": "event"
    },
    {
      "anonymous": false,
      "inputs": [
        {
          "indexed": false,
          "internalType": "address",
          "name": "highestBidder",
          "type": "address"
        },
        {
          "indexed": false,
          "internalType": "uint256",
          "name": "highestBid",
          "type": "uint256"
        }
      ],
      "name": "End",
      "type": "event"
    },
    {
      "anonymous": false,
      "inputs": [],
      "name": "Start",
      "type": "event"
    },
    {
      "anonymous": false,
      "inputs": [
        {
          "indexed": true,
          "internalType": "address",
          "name": "bidder",
          "type": "address"
        },
        {
          "indexed": false,
          "internalType": "uint256",
          "name": "amount",
          "type": "uint256"
        }
      ],
      "name": "Withdraw",
      "type": "event"
    },
    {
      "inputs": [
        {
          "internalType": "address",
          "name": "",
          "type": "address"
        }
      ],
      "name": "bids",
      "outputs": [
        {
          "internalType": "uint256",
          "name": "",
          "type": "uint256"
        }
      ],
      "stateMutability": "view",
      "type": "function"
    },
    {
      "inputs": [],
      "name": "duration",
      "outputs": [
        {
          "internalType": "uint256",
          "name": "",
          "type": "uint256"
        }
      ],
      "stateMutability": "view",
      "type": "function"
    },
    {
      "inputs": [],
      "name": "endAt",
      "outputs": [
        {
          "internalType": "uint256",
          "name": "",
          "type": "uint256"
        }
      ],
      "stateMutability": "view",
      "type": "function"
    },
    {
      "inputs": [],
      "name": "ended",
      "outputs": [
        {
          "internalType": "bool",
          "name": "",
          "type": "bool"
        }
      ],
      "stateMutability": "view",
      "type": "function"
    },
    {
      "inputs": [],
      "name": "highestBid",
      "outputs": [
        {
          "internalType": "uint256",
          "name": "",
          "type": "uint256"
        }
      ],
      "stateMutability": "view",
      "type": "function"
    },
    {
      "inputs": [],
      "name": "highestBidder",
      "outputs": [
        {
          "internalType": "address",
          "name": "",
          "type": "address"
        }
      ],
      "stateMutability": "view",
      "type": "function"
    },
    {
      "inputs": [],
      "name": "increment",
      "outputs": [
        {
          "internalType": "uint256",
          "name": "",
          "type": "uint256"
        }
      ],
      "stateMutability": "view",
      "type": "function"
    },
    {
      "inputs": [],
      "name": "nft",
      "outputs": [
        {
          "internalType": "contract IERC721",
          "name": "",
          "type": "address"
        }
      ],
      "stateMutability": "view",
      "type": "function"
    },
    {
      "inputs": [],
      "name": "nftId",
      "outputs": [
        {
          "internalType": "uint256",
          "name": "",
          "type": "uint256"
        }
      ],
      "stateMutability": "view",
      "type": "function"
    },
    {
      "inputs": [],
      "name": "seller",
      "outputs": [
        {
          "internalType": "address payable",
          "name": "",
          "type": "address"
        }
      ],
      "stateMutability": "view",
      "type": "function"
    },
    {
      "inputs": [],
      "name": "startAt",
      "outputs": [
        {
          "internalType": "uint256",
          "name": "",
          "type": "uint256"
        }
      ],
      "stateMutability": "view",
      "type": "function"
    },
    {
      "inputs": [],
      "name": "started",
      "outputs": [
        {
          "internalType": "bool",
          "name": "",
          "type": "bool"
        }
      ],
      "stateMutability": "view",
      "type": "function"
    },
    {
      "inputs": [],
      "name": "start",
      "outputs": [],
      "stateMutability": "nonpayable",
      "type": "function"
    },
    {
      "inputs": [],
      "name": "getPrice",
      "outputs": [
        {
          "internalType": "uint256",
          "name": "",
          "type": "uint256"
        }
      ],
      "stateMutability": "view",
      "type": "function"
    },
    {
      "inputs": [],
      "name": "info",
      "outputs": [
        {
          "internalType": "address",
          "name": "",
          "type": "address"
        },
        {
          "internalType": "address",
          "name": "",
          "type": "address"
        },
        {
          "internalType": "uint256",
          "name": "",
          "type": "uint256"
        },
        {
          "internalType": "uint256",
          "name": "",
          "type": "uint256"
        },
        {
          "internalType": "uint256",
          "name": "",
          "type": "uint256"
        },
        {
          "internalType": "uint256",
          "name": "",
          "type": "uint256"
        },
        {
          "internalType": "uint256",
          "name": "",
          "type": "uint256"
        },
        {
          "internalType": "uint256",
          "name": "",
          "type": "uint256"
        },
        {
          "internalType": "uint256",
          "name": "",
          "type": "uint256"
        },
        {
          "internalType": "bool",
          "name": "",
          "type": "bool"
        },
        {
          "internalType": "bool",
          "name": "",
          "type": "bool"
        },
        {
          "internalType": "address",
          "name": "",
          "type": "address"
        }
      ],
      "stateMutability": "view",
      "type": "function"
    },
    {
      "inputs": [],
      "name": "bid",
      "outputs": [],
      "stateMutability": "payable",
      "type": "function"
    },
    {
      "inputs": [],
      "name": "withdraw",
      "outputs": [],
      "stateMutability": "payable",
      "type": "function"
    },
    {
      "inputs": [],
      "name": "end",
      "outputs": [],
      "stateMutability": "nonpayable",
      "type": "function"
    }
  ],
  "bytecode": "0x60a06040523480156200001157600080fd5b50604051620022cc380380620022cc83398181016040528101906200003791906200029f565b60016000819055506000831162000085576040517f08c379a00000000000000000000000000000000000000000000000000000000081526004016200007c90620003c2565b60405180910390fd5b60008211620000cb576040517f08c379a0000000000000000000000000000000000000000000000000000000008152600401620000c2906200045a565b60405180910390fd5b6000811162000111576040517f08c379a00000000000000000000000000000000000000000000000000000000081526004016200010890620004cc565b60405180910390fd5b8573ffffffffffffffffffffffffffffffffffffffff1660808173ffffffffffffffffffffffffffffffffffffffff168152505082600881905550816005819055508060038190555084600660006101000a81548173ffffffffffffffffffffffffffffffffffffffff021916908373ffffffffffffffffffffffffffffffffffffffff1602179055508360078190555080600381905550505050505050620004ee565b600080fd5b600073ffffffffffffffffffffffffffffffffffffffff82169050919050565b6000620001e782620001ba565b9050919050565b620001f981620001da565b81146200020557600080fd5b50565b6000815190506200021981620001ee565b92915050565b60006200022c82620001da565b9050919050565b6200023e816200021f565b81146200024a57600080fd5b50565b6000815190506200025e8162000233565b92915050565b6000819050919050565b620002798162000264565b81146200028557600080fd5b50565b60008151905062000299816200026e565b92915050565b60008060008060008060c08789031215620002bf57620002be620001b5565b5b6000620002cf89828a0162000208565b9650506020620002e289828a016200024d565b9550506040620002f589828a0162000288565b94505060606200030889828a0162000288565b93505060806200031b89828a0162000288565b92505060a06200032e89828a0162000288565b9150509295509295509295565b600082825260208201905092915050565b7f5374617274696e6720626964206d75737420626520677265617465722074686160008201527f6e20302100000000000000000000000000000000000000000000000000000000602082015250565b6000620003aa6024836200033b565b9150620003b7826200034c565b604082019050919050565b60006020820190508181036000830152620003dd816200039b565b9050919050565b7f496e6372656d656e74206d7573742062652067726561746572207468616e203060008201527f2100000000000000000000000000000000000000000000000000000000000000602082015250565b6000620004426021836200033b565b91506200044f82620003e4565b604082019050919050565b60006020820190508181036000830152620004758162000433565b9050919050565b7f4475726174696f6e206d7573742062652067726561746572207468616e203021600082015250565b6000620004b46020836200033b565b9150620004c1826200047c565b602082019050919050565b60006020820190508181036000830152620004e781620004a5565b9050919050565b608051611d9f6200052d600039600081816103c9015281816104e50152818161080e01528181610c880152818161103701526111480152611d9f6000f3fe6080604052600436106101095760003560e01c80637cc3ae8c11610095578063c6bc518211610064578063c6bc518214610304578063c74465651461032f578063d09de08a1461035a578063d57bde7914610385578063efbe1c1c146103b057610109565b80637cc3ae8c1461026c57806391f901571461029757806398d5fdca146102c2578063be9a6555146102ed57610109565b80631f2698ab116100dc5780631f2698ab14610199578063370158ea146101c45780633ccfd60b146101fa57806347ccca021461020457806362ea82db1461022f57610109565b806308551a531461010e5780630fb5a6b41461013957806312fa6feb146101645780631998aeef1461018f575b600080fd5b34801561011a57600080fd5b506101236103c7565b60405161013091906112bc565b60405180910390f35b34801561014557600080fd5b5061014e6103eb565b60405161015b91906112f0565b60405180910390f35b34801561017057600080fd5b506101796103f1565b6040516101869190611326565b60405180910390f35b610197610402565b005b3480156101a557600080fd5b506101ae6107e7565b6040516101bb9190611326565b60405180910390f35b3480156101d057600080fd5b506101d96107fa565b6040516101f19c9b9a99989796959493929190611362565b60405180910390f35b610202610909565b005b34801561021057600080fd5b50610219610bc2565b604051610226919061147b565b60405180910390f35b34801561023b57600080fd5b50610256600480360381019061025191906114c7565b610be8565b60405161026391906112f0565b60405180910390f35b34801561027857600080fd5b50610281610c00565b60405161028e91906112f0565b60405180910390f35b3480156102a357600080fd5b506102ac610c06565b6040516102b991906114f4565b60405180910390f35b3480156102ce57600080fd5b506102d7610c2c565b6040516102e491906112f0565b60405180910390f35b3480156102f957600080fd5b50610302610c36565b005b34801561031057600080fd5b50610319610e0c565b60405161032691906112f0565b60405180910390f35b34801561033b57600080fd5b50610344610e12565b60405161035191906112f0565b60405180910390f35b34801561036657600080fd5b5061036f610e18565b60405161037c91906112f0565b60405180910390f35b34801561039157600080fd5b5061039a610e1e565b6040516103a791906112f0565b60405180910390f35b3480156103bc57600080fd5b506103c5610e24565b005b7f000000000000000000000000000000000000000000000000000000000000000081565b60035481565b60018054906101000a900460ff1681565b600160009054906101000a900460ff16610451576040517f08c379a00000000000000000000000000000000000000000000000000000000081526004016104489061156c565b60405180910390fd5b60018054906101000a900460ff161561049f576040517f08c379a0000000000000000000000000000000000000000000000000000000008152600401610496906115d8565b60405180910390fd5b60045442106104e3576040517f08c379a00000000000000000000000000000000000000000000000000000000081526004016104da906115d8565b60405180910390fd5b7f000000000000000000000000000000000000000000000000000000000000000073ffffffffffffffffffffffffffffffffffffffff163373ffffffffffffffffffffffffffffffffffffffff1603610571576040517f08c379a000000000000000000000000000000000000000000000000000000000815260040161056890611644565b60405180910390fd5b600073ffffffffffffffffffffffffffffffffffffffff16600960009054906101000a900473ffffffffffffffffffffffffffffffffffffffff1673ffffffffffffffffffffffffffffffffffffffff161461060d5760055434101561060c576040517f08c379a0000000000000000000000000000000000000000000000000000000008152600401610603906116d6565b60405180910390fd5b5b600854600a60003373ffffffffffffffffffffffffffffffffffffffff1673ffffffffffffffffffffffffffffffffffffffff168152602001908152602001600020543461065b9190611725565b1161069b576040517f08c379a0000000000000000000000000000000000000000000000000000000008152600401610692906117ed565b60405180910390fd5b600a60003373ffffffffffffffffffffffffffffffffffffffff1673ffffffffffffffffffffffffffffffffffffffff16815260200190815260200160002054346106e69190611725565b600881905550600854600a60003373ffffffffffffffffffffffffffffffffffffffff1673ffffffffffffffffffffffffffffffffffffffff1681526020019081526020016000208190555033600960006101000a81548173ffffffffffffffffffffffffffffffffffffffff021916908373ffffffffffffffffffffffffffffffffffffffff160217905550600960009054906101000a900473ffffffffffffffffffffffffffffffffffffffff1673ffffffffffffffffffffffffffffffffffffffff167fe684a55f31b79eca403df938249029212a5925ec6be8012e099b45bc1019e5d26008546040516107dd91906112f0565b60405180910390a2565b600160009054906101000a900460ff1681565b6000806000806000806000806000806000807f0000000000000000000000000000000000000000000000000000000000000000600960009054906101000a900473ffffffffffffffffffffffffffffffffffffffff16600254600354600454600554600854600754600a60003373ffffffffffffffffffffffffffffffffffffffff1673ffffffffffffffffffffffffffffffffffffffff16815260200190815260200160002054600160009054906101000a900460ff1660018054906101000a900460ff16600660009054906101000a900473ffffffffffffffffffffffffffffffffffffffff169b509b509b509b509b509b509b509b509b509b509b509b50909192939495969798999a9b565b610911611222565b600160009054906101000a900460ff16610960576040517f08c379a00000000000000000000000000000000000000000000000000000000081526004016109579061156c565b60405180910390fd5b600960009054906101000a900473ffffffffffffffffffffffffffffffffffffffff1673ffffffffffffffffffffffffffffffffffffffff163373ffffffffffffffffffffffffffffffffffffffff16036109f0576040517f08c379a00000000000000000000000000000000000000000000000000000000081526004016109e790611859565b60405180910390fd5b6000600a60003373ffffffffffffffffffffffffffffffffffffffff1673ffffffffffffffffffffffffffffffffffffffff16815260200190815260200160002054905060008111610a77576040517f08c379a0000000000000000000000000000000000000000000000000000000008152600401610a6e906118c5565b60405180910390fd5b6000600a60003373ffffffffffffffffffffffffffffffffffffffff1673ffffffffffffffffffffffffffffffffffffffff1681526020019081526020016000208190555060003373ffffffffffffffffffffffffffffffffffffffff1682604051610ae290611916565b60006040518083038185875af1925050503d8060008114610b1f576040519150601f19603f3d011682016040523d82523d6000602084013e610b24565b606091505b5050905080610b68576040517f08c379a0000000000000000000000000000000000000000000000000000000008152600401610b5f90611977565b60405180910390fd5b3373ffffffffffffffffffffffffffffffffffffffff167f884edad9ce6fa2440d8a54cc123490eb96d2768479d49ff9c7366125a942436483604051610bae91906112f0565b60405180910390a25050610bc0611271565b565b600660009054906101000a900473ffffffffffffffffffffffffffffffffffffffff1681565b600a6020528060005260406000206000915090505481565b60045481565b600960009054906101000a900473ffffffffffffffffffffffffffffffffffffffff1681565b6000600854905090565b600160009054906101000a900460ff1615610c86576040517f08c379a0000000000000000000000000000000000000000000000000000000008152600401610c7d906119e3565b60405180910390fd5b7f000000000000000000000000000000000000000000000000000000000000000073ffffffffffffffffffffffffffffffffffffffff163373ffffffffffffffffffffffffffffffffffffffff1614610d14576040517f08c379a0000000000000000000000000000000000000000000000000000000008152600401610d0b90611a75565b60405180910390fd5b600660009054906101000a900473ffffffffffffffffffffffffffffffffffffffff1673ffffffffffffffffffffffffffffffffffffffff166323b872dd33306007546040518463ffffffff1660e01b8152600401610d7593929190611a95565b600060405180830381600087803b158015610d8f57600080fd5b505af1158015610da3573d6000803e3d6000fd5b5050505060018060006101000a81548160ff02191690831515021790555042600281905550600354600254610dd89190611725565b6004819055507f1b55ba3aa851a46be3b365aee5b5c140edd620d578922f3e8466d2cbd96f954b60405160405180910390a1565b60075481565b60025481565b60055481565b60085481565b610e2c611222565b600160009054906101000a900460ff16610e7b576040517f08c379a0000000000000000000000000000000000000000000000000000000008152600401610e7290611b18565b60405180910390fd5b600454421015610ec0576040517f08c379a0000000000000000000000000000000000000000000000000000000008152600401610eb790611b84565b60405180910390fd5b60018054906101000a900460ff1615610f0e576040517f08c379a0000000000000000000000000000000000000000000000000000000008152600401610f0590611bf0565b60405180910390fd5b60018060016101000a81548160ff021916908315150217905550600073ffffffffffffffffffffffffffffffffffffffff16600960009054906101000a900473ffffffffffffffffffffffffffffffffffffffff1673ffffffffffffffffffffffffffffffffffffffff161461110757600660009054906101000a900473ffffffffffffffffffffffffffffffffffffffff1673ffffffffffffffffffffffffffffffffffffffff166323b872dd30600960009054906101000a900473ffffffffffffffffffffffffffffffffffffffff166007546040518463ffffffff1660e01b815260040161100193929190611a95565b600060405180830381600087803b15801561101b57600080fd5b505af115801561102f573d6000803e3d6000fd5b5050505060007f000000000000000000000000000000000000000000000000000000000000000073ffffffffffffffffffffffffffffffffffffffff1660085460405161107b90611916565b60006040518083038185875af1925050503d80600081146110b8576040519150601f19603f3d011682016040523d82523d6000602084013e6110bd565b606091505b5050905080611101576040517f08c379a00000000000000000000000000000000000000000000000000000000081526004016110f890611c5c565b60405180910390fd5b506111bb565b600660009054906101000a900473ffffffffffffffffffffffffffffffffffffffff1673ffffffffffffffffffffffffffffffffffffffff166323b872dd307f00000000000000000000000000000000000000000000000000000000000000006007546040518463ffffffff1660e01b815260040161118893929190611c9d565b600060405180830381600087803b1580156111a257600080fd5b505af11580156111b6573d6000803e3d6000fd5b505050505b7f7d7570b046e5ead3a4f3fbc9fa2445113625a1e79823776146316bafed6b8cc5600960009054906101000a900473ffffffffffffffffffffffffffffffffffffffff16600854604051611210929190611cd4565b60405180910390a1611220611271565b565b600260005403611267576040517f08c379a000000000000000000000000000000000000000000000000000000000815260040161125e90611d49565b60405180910390fd5b6002600081905550565b6001600081905550565b600073ffffffffffffffffffffffffffffffffffffffff82169050919050565b60006112a68261127b565b9050919050565b6112b68161129b565b82525050565b60006020820190506112d160008301846112ad565b92915050565b6000819050919050565b6112ea816112d7565b82525050565b600060208201905061130560008301846112e1565b92915050565b60008115159050919050565b6113208161130b565b82525050565b600060208201905061133b6000830184611317565b92915050565b600061134c8261127b565b9050919050565b61135c81611341565b82525050565b600061018082019050611378600083018f611353565b611385602083018e611353565b611392604083018d6112e1565b61139f606083018c6112e1565b6113ac608083018b6112e1565b6113b960a083018a6112e1565b6113c660c08301896112e1565b6113d360e08301886112e1565b6113e16101008301876112e1565b6113ef610120830186611317565b6113fd610140830185611317565b61140b610160830184611353565b9d9c50505050505050505050505050565b6000819050919050565b600061144161143c6114378461127b565b61141c565b61127b565b9050919050565b600061145382611426565b9050919050565b600061146582611448565b9050919050565b6114758161145a565b82525050565b6000602082019050611490600083018461146c565b92915050565b600080fd5b6114a481611341565b81146114af57600080fd5b50565b6000813590506114c18161149b565b92915050565b6000602082840312156114dd576114dc611496565b5b60006114eb848285016114b2565b91505092915050565b60006020820190506115096000830184611353565b92915050565b600082825260208201905092915050565b7f41756374696f6e206e6f74207374617274656421000000000000000000000000600082015250565b600061155660148361150f565b915061156182611520565b602082019050919050565b6000602082019050818103600083015261158581611549565b9050919050565b7f41756374696f6e20656e64656421000000000000000000000000000000000000600082015250565b60006115c2600e8361150f565b91506115cd8261158c565b602082019050919050565b600060208201905081810360008301526115f1816115b5565b9050919050565b7f596f7520617265207468652073656c6c65722100000000000000000000000000600082015250565b600061162e60138361150f565b9150611639826115f8565b602082019050919050565b6000602082019050818103600083015261165d81611621565b9050919050565b7f496e73756666696369656e742062696420616d6f756e7420696e6372656d656e60008201527f7421000000000000000000000000000000000000000000000000000000000000602082015250565b60006116c060228361150f565b91506116cb82611664565b604082019050919050565b600060208201905081810360008301526116ef816116b3565b9050919050565b7f4e487b7100000000000000000000000000000000000000000000000000000000600052601160045260246000fd5b6000611730826112d7565b915061173b836112d7565b9250827fffffffffffffffffffffffffffffffffffffffffffffffffffffffffffffffff038211156117705761176f6116f6565b5b828201905092915050565b7f426964206d7573742062652067726561746572207468616e206869676865737460008201527f2062696421000000000000000000000000000000000000000000000000000000602082015250565b60006117d760258361150f565b91506117e28261177b565b604082019050919050565b60006020820190508181036000830152611806816117ca565b9050919050565b7f48696768657374206269646465722063616e6e6f742077697468647261772e00600082015250565b6000611843601f8361150f565b915061184e8261180d565b602082019050919050565b6000602082019050818103600083015261187281611836565b9050919050565b7f4e6f2062616c616e636520746f2077697468647261772e000000000000000000600082015250565b60006118af60178361150f565b91506118ba82611879565b602082019050919050565b600060208201905081810360008301526118de816118a2565b9050919050565b600081905092915050565b50565b60006119006000836118e5565b915061190b826118f0565b600082019050919050565b6000611921826118f3565b9150819050919050565b7f436f756c64206e6f742077697468647261770000000000000000000000000000600082015250565b600061196160128361150f565b915061196c8261192b565b602082019050919050565b6000602082019050818103600083015261199081611954565b9050919050565b7f41756374696f6e20616c72656164792073746172746564210000000000000000600082015250565b60006119cd60188361150f565b91506119d882611997565b602082019050919050565b600060208201905081810360008301526119fc816119c0565b9050919050565b7f596f7520617265206e6f7420746865206f776e6572206f66207468697320617560008201527f6374696f6e210000000000000000000000000000000000000000000000000000602082015250565b6000611a5f60268361150f565b9150611a6a82611a03565b604082019050919050565b60006020820190508181036000830152611a8e81611a52565b9050919050565b6000606082019050611aaa6000830186611353565b611ab76020830185611353565b611ac460408301846112e1565b949350505050565b7f596f75206e65656420746f207374617274206669727374210000000000000000600082015250565b6000611b0260188361150f565b9150611b0d82611acc565b602082019050919050565b60006020820190508181036000830152611b3181611af5565b9050919050565b7f41756374696f6e206973207374696c6c206f6e676f696e672100000000000000600082015250565b6000611b6e60198361150f565b9150611b7982611b38565b602082019050919050565b60006020820190508181036000830152611b9d81611b61565b9050919050565b7f41756374696f6e20616c726561647920656e6465642100000000000000000000600082015250565b6000611bda60168361150f565b9150611be582611ba4565b602082019050919050565b60006020820190508181036000830152611c0981611bcd565b9050919050565b7f436f756c64206e6f74207061792073656c6c6572210000000000000000000000600082015250565b6000611c4660158361150f565b9150611c5182611c10565b602082019050919050565b60006020820190508181036000830152611c7581611c39565b9050919050565b6000611c8782611448565b9050919050565b611c9781611c7c565b82525050565b6000606082019050611cb26000830186611353565b611cbf6020830185611c8e565b611ccc60408301846112e1565b949350505050565b6000604082019050611ce96000830185611353565b611cf660208301846112e1565b9392505050565b7f5265656e7472616e637947756172643a207265656e7472616e742063616c6c00600082015250565b6000611d33601f8361150f565b9150611d3e82611cfd565b602082019050919050565b60006020820190508181036000830152611d6281611d26565b905091905056fea2646970667358221220821ae5549d51caebd33cf05ca7f989fb79e811bd9a6c8044e6f86abda72e23b864736f6c634300080e0033",
  "immutableReferences": {
    "108": [
      {
        "length": 32,
        "start": 969
      },
      {
        "length": 32,
        "start": 1253
      },
      {
        "length": 32,
        "start": 2062
      },
      {
        "length": 32,
        "start": 3208
      },
      {
        "length": 32,
        "start": 4151
      },
      {
        "length": 32,
        "start": 4424
      }
    ]
  },
  "source": "// SPDX-License-Identifier: MIT\npragma solidity >=0.8.0 <0.9.0;\n\nimport \"@openzeppelin/contracts/security/ReentrancyGuard.sol\";\n\ninterface IERC721 {\n    function transfer(address, uint256) external;\n\n    function transferFrom(\n        address,\n        address,\n        uint256\n    ) external;\n}\n\ncontract Auction is ReentrancyGuard {\n    event Start();\n    event End(address highestBidder, uint256 highestBid);\n    event Bid(address indexed sender, uint256 amount);\n    event Withdraw(address indexed bidder, uint256 amount);\n\n    address payable public immutable seller;\n\n    bool public started;\n    bool public ended;\n\n    uint256 public startAt;\n    uint256 public duration;\n    uint256 public endAt;\n    uint256 public increment;\n\n    IERC721 public nft; // address of the NFT\n    uint256 public nftId;\n\n    uint256 public highestBid;\n    address public highestBidder;\n    mapping(address => uint256) public bids;\n\n    constructor(\n        address sender, // metamask address of the seller who created auction\n        IERC721 _nft, // nft token object\n        uint256 _nftId, // nft token id\n        uint256 _startingBid,\n        uint256 _increment,\n        uint256 _duration\n    ) {\n        require(_startingBid > 0, \"Starting bid must be greater than 0!\");\n        require(_increment > 0, \"Increment must be greater than 0!\");\n        require(_duration > 0, \"Duration must be greater than 0!\");\n        seller = payable(sender);\n        highestBid = _startingBid;\n        increment = _increment;\n        duration = _duration;\n\n        nft = _nft;\n        nftId = _nftId;\n        duration = _duration;\n    }\n\n    function start() external {\n        require(!started, \"Auction already started!\");\n        require(msg.sender == seller, \"You are not the owner of this auction!\");\n\n        nft.transferFrom(msg.sender, address(this), nftId);\n        started = true;\n        startAt = block.timestamp;\n        endAt = startAt + duration;\n\n        emit Start();\n    }\n\n    function getPrice() public view returns (uint256) {\n        return highestBid;\n    }\n\n    function info()\n        public\n        view\n        returns (\n            address,\n            address,\n            uint256,\n            uint256,\n            uint256,\n            uint256,\n            uint256,\n            uint256,\n            uint256,\n            bool,\n            bool,\n            address\n        )\n    {\n        return (\n            seller,\n            highestBidder,\n            startAt,\n            duration,\n            endAt,\n            increment,\n            highestBid,\n            nftId,\n            bids[msg.sender],\n            started,\n            ended,\n            address(nft)\n        );\n    }\n\n    function bid() external payable {\n        require(started, \"Auction not started!\");\n        require(!ended, \"Auction ended!\");\n        require(block.timestamp < endAt, \"Auction ended!\");\n        require(msg.sender != seller, \"You are the seller!\");\n        if (highestBidder != address(0)) {\n            // only check if this is NOT the first offer\n            // as the msg.value in first offer represents the starting bid\n            require(\n                msg.value >= increment,\n                \"Insufficient bid amount increment!\"\n            );\n        }\n        require(\n            msg.value + bids[msg.sender] > highestBid,\n            \"Bid must be greater than highest bid!\"\n        );\n\n        highestBid = msg.value + bids[msg.sender];\n        bids[msg.sender] = highestBid;\n        highestBidder = msg.sender;\n\n        emit Bid(highestBidder, highestBid);\n    }\n\n    function withdraw() external payable nonReentrant {\n        require(started, \"Auction not started!\");\n        require(msg.sender != highestBidder, \"Highest bidder cannot withdraw.\");\n        uint256 bal = bids[msg.sender];\n        require(bal > 0, \"No balance to withdraw.\");\n\n        bids[msg.sender] = 0; // Ensure all state changes happen before calling external contracts\n        (bool sent, ) = payable(msg.sender).call{value: bal}(\"\");\n        require(sent, \"Could not withdraw\");\n\n        emit Withdraw(msg.sender, bal);\n    }\n\n    function end() external nonReentrant {\n        require(started, \"You need to start first!\");\n        require(block.timestamp >= endAt, \"Auction is still ongoing!\");\n        require(!ended, \"Auction already ended!\");\n        ended = true; // Ensure all state changes happen before calling external contracts\n\n        if (highestBidder != address(0)) {\n            // Someone bidded\n            nft.transferFrom(address(this), highestBidder, nftId);\n            (bool sent, ) = seller.call{value: highestBid}(\"\");\n            require(sent, \"Could not pay seller!\");\n        } else {\n            // no one bidded\n            nft.transferFrom(address(this), seller, nftId);\n        }\n\n        emit End(highestBidder, highestBid);\n    }\n}\n",
  "sourcePath": "/home/peilunnn/Downloads/Internship Projects/source_code/dapp-auction-main/truffle/contracts/Auction.sol",
  "compiler": {
    "name": "solc",
    "version": "0.8.14+commit.80d49f37.Emscripten.clang"
  },
  "schemaVersion": "3.4.14",
  "updatedAt": "2023-06-13T13:54:13.871Z",
  "devdoc": {
    "kind": "dev",
    "methods": {},
    "version": 1
  },
  "userdoc": {
    "kind": "user",
    "methods": {},
    "version": 1
  }
}