{
  "contractName": "MintNFT",
  "abi": [
    {
      "inputs": [],
      "stateMutability": "nonpayable",
      "type": "constructor"
    },
    {
      "anonymous": false,
      "inputs": [
        {
          "indexed": true,
          "internalType": "address",
          "name": "owner",
          "type": "address"
        },
        {
          "indexed": true,
          "internalType": "address",
          "name": "approved",
          "type": "address"
        },
        {
          "indexed": true,
          "internalType": "uint256",
          "name": "tokenId",
          "type": "uint256"
        }
      ],
      "name": "Approval",
      "type": "event"
    },
    {
      "anonymous": false,
      "inputs": [
        {
          "indexed": true,
          "internalType": "address",
          "name": "owner",
          "type": "address"
        },
        {
          "indexed": true,
          "internalType": "address",
          "name": "operator",
          "type": "address"
        },
        {
          "indexed": false,
          "internalType": "bool",
          "name": "approved",
          "type": "bool"
        }
      ],
      "name": "ApprovalForAll",
      "type": "event"
    },
    {
      "anonymous": false,
      "inputs": [
        {
          "indexed": true,
          "internalType": "address",
          "name": "previousOwner",
          "type": "address"
        },
        {
          "indexed": true,
          "internalType": "address",
          "name": "newOwner",
          "type": "address"
        }
      ],
      "name": "OwnershipTransferred",
      "type": "event"
    },
    {
      "anonymous": false,
      "inputs": [
        {
          "indexed": true,
          "internalType": "address",
          "name": "from",
          "type": "address"
        },
        {
          "indexed": true,
          "internalType": "address",
          "name": "to",
          "type": "address"
        },
        {
          "indexed": true,
          "internalType": "uint256",
          "name": "tokenId",
          "type": "uint256"
        }
      ],
      "name": "Transfer",
      "type": "event"
    },
    {
      "inputs": [
        {
          "internalType": "address",
          "name": "to",
          "type": "address"
        },
        {
          "internalType": "uint256",
          "name": "tokenId",
          "type": "uint256"
        }
      ],
      "name": "approve",
      "outputs": [],
      "stateMutability": "nonpayable",
      "type": "function"
    },
    {
      "inputs": [
        {
          "internalType": "address",
          "name": "owner",
          "type": "address"
        }
      ],
      "name": "balanceOf",
      "outputs": [
        {
          "internalType": "uint256",
          "name": "",
          "type": "uint256"
        }
      ],
      "stateMutability": "view",
      "type": "function",
      "constant": true
    },
    {
      "inputs": [
        {
          "internalType": "uint256",
          "name": "tokenId",
          "type": "uint256"
        }
      ],
      "name": "getApproved",
      "outputs": [
        {
          "internalType": "address",
          "name": "",
          "type": "address"
        }
      ],
      "stateMutability": "view",
      "type": "function",
      "constant": true
    },
    {
      "inputs": [
        {
          "internalType": "address",
          "name": "owner",
          "type": "address"
        },
        {
          "internalType": "address",
          "name": "operator",
          "type": "address"
        }
      ],
      "name": "isApprovedForAll",
      "outputs": [
        {
          "internalType": "bool",
          "name": "",
          "type": "bool"
        }
      ],
      "stateMutability": "view",
      "type": "function",
      "constant": true
    },
    {
      "inputs": [],
      "name": "name",
      "outputs": [
        {
          "internalType": "string",
          "name": "",
          "type": "string"
        }
      ],
      "stateMutability": "view",
      "type": "function",
      "constant": true
    },
    {
      "inputs": [],
      "name": "owner",
      "outputs": [
        {
          "internalType": "address",
          "name": "",
          "type": "address"
        }
      ],
      "stateMutability": "view",
      "type": "function",
      "constant": true
    },
    {
      "inputs": [
        {
          "internalType": "uint256",
          "name": "tokenId",
          "type": "uint256"
        }
      ],
      "name": "ownerOf",
      "outputs": [
        {
          "internalType": "address",
          "name": "",
          "type": "address"
        }
      ],
      "stateMutability": "view",
      "type": "function",
      "constant": true
    },
    {
      "inputs": [],
      "name": "renounceOwnership",
      "outputs": [],
      "stateMutability": "nonpayable",
      "type": "function"
    },
    {
      "inputs": [
        {
          "internalType": "address",
          "name": "from",
          "type": "address"
        },
        {
          "internalType": "address",
          "name": "to",
          "type": "address"
        },
        {
          "internalType": "uint256",
          "name": "tokenId",
          "type": "uint256"
        }
      ],
      "name": "safeTransferFrom",
      "outputs": [],
      "stateMutability": "nonpayable",
      "type": "function"
    },
    {
      "inputs": [
        {
          "internalType": "address",
          "name": "from",
          "type": "address"
        },
        {
          "internalType": "address",
          "name": "to",
          "type": "address"
        },
        {
          "internalType": "uint256",
          "name": "tokenId",
          "type": "uint256"
        },
        {
          "internalType": "bytes",
          "name": "data",
          "type": "bytes"
        }
      ],
      "name": "safeTransferFrom",
      "outputs": [],
      "stateMutability": "nonpayable",
      "type": "function"
    },
    {
      "inputs": [
        {
          "internalType": "address",
          "name": "operator",
          "type": "address"
        },
        {
          "internalType": "bool",
          "name": "approved",
          "type": "bool"
        }
      ],
      "name": "setApprovalForAll",
      "outputs": [],
      "stateMutability": "nonpayable",
      "type": "function"
    },
    {
      "inputs": [
        {
          "internalType": "bytes4",
          "name": "interfaceId",
          "type": "bytes4"
        }
      ],
      "name": "supportsInterface",
      "outputs": [
        {
          "internalType": "bool",
          "name": "",
          "type": "bool"
        }
      ],
      "stateMutability": "view",
      "type": "function",
      "constant": true
    },
    {
      "inputs": [],
      "name": "symbol",
      "outputs": [
        {
          "internalType": "string",
          "name": "",
          "type": "string"
        }
      ],
      "stateMutability": "view",
      "type": "function",
      "constant": true
    },
    {
      "inputs": [
        {
          "internalType": "address",
          "name": "from",
          "type": "address"
        },
        {
          "internalType": "address",
          "name": "to",
          "type": "address"
        },
        {
          "internalType": "uint256",
          "name": "tokenId",
          "type": "uint256"
        }
      ],
      "name": "transferFrom",
      "outputs": [],
      "stateMutability": "nonpayable",
      "type": "function"
    },
    {
      "inputs": [
        {
          "internalType": "address",
          "name": "newOwner",
          "type": "address"
        }
      ],
      "name": "transferOwnership",
      "outputs": [],
      "stateMutability": "nonpayable",
      "type": "function"
    },
    {
      "inputs": [
        {
          "internalType": "string",
          "name": "baseURI_",
          "type": "string"
        }
      ],
      "name": "setBaseURI",
      "outputs": [],
      "stateMutability": "nonpayable",
      "type": "function"
    },
    {
      "inputs": [
        {
          "internalType": "uint256",
          "name": "tokenId",
          "type": "uint256"
        }
      ],
      "name": "tokenURI",
      "outputs": [
        {
          "internalType": "string",
          "name": "",
          "type": "string"
        }
      ],
      "stateMutability": "view",
      "type": "function",
      "constant": true
    },
    {
      "inputs": [
        {
          "internalType": "string",
          "name": "tokenURIInput",
          "type": "string"
        }
      ],
      "name": "mint",
      "outputs": [
        {
          "internalType": "uint256",
          "name": "",
          "type": "uint256"
        }
      ],
      "stateMutability": "nonpayable",
      "type": "function"
    },
    {
      "inputs": [],
      "name": "totalSupply",
      "outputs": [
        {
          "internalType": "uint256",
          "name": "",
          "type": "uint256"
        }
      ],
      "stateMutability": "view",
      "type": "function",
      "constant": true
    }
  ],
  "bytecode": "0x60806040523480156200001157600080fd5b506040518060400160405280600781526020017f4d696e744e4654000000000000000000000000000000000000000000000000008152506040518060400160405280600781526020017f4d696e744e4654000000000000000000000000000000000000000000000000008152506200009e62000092620000d860201b60201c565b620000e060201b60201c565b8160019080519060200190620000b6929190620001a4565b508060029080519060200190620000cf929190620001a4565b505050620002b8565b600033905090565b60008060009054906101000a900473ffffffffffffffffffffffffffffffffffffffff169050816000806101000a81548173ffffffffffffffffffffffffffffffffffffffff021916908373ffffffffffffffffffffffffffffffffffffffff1602179055508173ffffffffffffffffffffffffffffffffffffffff168173ffffffffffffffffffffffffffffffffffffffff167f8be0079c531659141344cd1fd0a4f28419497f9722a3daafe3b4186f6b6457e060405160405180910390a35050565b828054620001b29062000283565b90600052602060002090601f016020900481019282620001d6576000855562000222565b82601f10620001f157805160ff191683800117855562000222565b8280016001018555821562000222579182015b828111156200022157825182559160200191906001019062000204565b5b50905062000231919062000235565b5090565b5b808211156200025057600081600090555060010162000236565b5090565b7f4e487b7100000000000000000000000000000000000000000000000000000000600052602260045260246000fd5b600060028204905060018216806200029c57607f821691505b602082108103620002b257620002b162000254565b5b50919050565b612dcf80620002c86000396000f3fe608060405234801561001057600080fd5b50600436106101215760003560e01c806370a08231116100ad578063b88d4fde11610071578063b88d4fde146102f4578063c87b56dd14610310578063d85d3d2714610340578063e985e9c514610370578063f2fde38b146103a057610121565b806370a0823114610262578063715018a6146102925780638da5cb5b1461029c57806395d89b41146102ba578063a22cb465146102d857610121565b806318160ddd116100f457806318160ddd146101c057806323b872dd146101de57806342842e0e146101fa57806355f804b3146102165780636352211e1461023257610121565b806301ffc9a71461012657806306fdde0314610156578063081812fc14610174578063095ea7b3146101a4575b600080fd5b610140600480360381019061013b9190611db6565b6103bc565b60405161014d9190611dfe565b60405180910390f35b61015e61049e565b60405161016b9190611eb2565b60405180910390f35b61018e60048036038101906101899190611f0a565b610530565b60405161019b9190611f78565b60405180910390f35b6101be60048036038101906101b99190611fbf565b610576565b005b6101c861068d565b6040516101d5919061200e565b60405180910390f35b6101f860048036038101906101f39190612029565b61069e565b005b610214600480360381019061020f9190612029565b6106fe565b005b610230600480360381019061022b91906121b1565b61071e565b005b61024c60048036038101906102479190611f0a565b610740565b6040516102599190611f78565b60405180910390f35b61027c600480360381019061027791906121fa565b6107c6565b604051610289919061200e565b60405180910390f35b61029a61087d565b005b6102a4610891565b6040516102b19190611f78565b60405180910390f35b6102c26108ba565b6040516102cf9190611eb2565b60405180910390f35b6102f260048036038101906102ed9190612253565b61094c565b005b61030e60048036038101906103099190612334565b610962565b005b61032a60048036038101906103259190611f0a565b6109c4565b6040516103379190611eb2565b60405180910390f35b61035a600480360381019061035591906121b1565b610b36565b604051610367919061200e565b60405180910390f35b61038a600480360381019061038591906123b7565b610b6d565b6040516103979190611dfe565b60405180910390f35b6103ba60048036038101906103b591906121fa565b610c01565b005b60007f80ac58cd000000000000000000000000000000000000000000000000000000007bffffffffffffffffffffffffffffffffffffffffffffffffffffffff1916827bffffffffffffffffffffffffffffffffffffffffffffffffffffffff1916148061048757507f5b5e139f000000000000000000000000000000000000000000000000000000007bffffffffffffffffffffffffffffffffffffffffffffffffffffffff1916827bffffffffffffffffffffffffffffffffffffffffffffffffffffffff1916145b80610497575061049682610c84565b5b9050919050565b6060600180546104ad90612426565b80601f01602080910402602001604051908101604052809291908181526020018280546104d990612426565b80156105265780601f106104fb57610100808354040283529160200191610526565b820191906000526020600020905b81548152906001019060200180831161050957829003601f168201915b5050505050905090565b600061053b82610cee565b6005600083815260200190815260200160002060009054906101000a900473ffffffffffffffffffffffffffffffffffffffff169050919050565b600061058182610740565b90508073ffffffffffffffffffffffffffffffffffffffff168373ffffffffffffffffffffffffffffffffffffffff16036105f1576040517f08c379a00000000000000000000000000000000000000000000000000000000081526004016105e8906124c9565b60405180910390fd5b8073ffffffffffffffffffffffffffffffffffffffff16610610610d39565b73ffffffffffffffffffffffffffffffffffffffff16148061063f575061063e81610639610d39565b610b6d565b5b61067e576040517f08c379a00000000000000000000000000000000000000000000000000000000081526004016106759061255b565b60405180910390fd5b6106888383610d41565b505050565b60006106996007610dfa565b905090565b6106af6106a9610d39565b82610e08565b6106ee576040517f08c379a00000000000000000000000000000000000000000000000000000000081526004016106e5906125ed565b60405180910390fd5b6106f9838383610e9d565b505050565b61071983838360405180602001604052806000815250610962565b505050565b610726611196565b806009908051906020019061073c929190611ca7565b5050565b60008061074c83611214565b9050600073ffffffffffffffffffffffffffffffffffffffff168173ffffffffffffffffffffffffffffffffffffffff16036107bd576040517f08c379a00000000000000000000000000000000000000000000000000000000081526004016107b490612659565b60405180910390fd5b80915050919050565b60008073ffffffffffffffffffffffffffffffffffffffff168273ffffffffffffffffffffffffffffffffffffffff1603610836576040517f08c379a000000000000000000000000000000000000000000000000000000000815260040161082d906126eb565b60405180910390fd5b600460008373ffffffffffffffffffffffffffffffffffffffff1673ffffffffffffffffffffffffffffffffffffffff168152602001908152602001600020549050919050565b610885611196565b61088f6000611251565b565b60008060009054906101000a900473ffffffffffffffffffffffffffffffffffffffff16905090565b6060600280546108c990612426565b80601f01602080910402602001604051908101604052809291908181526020018280546108f590612426565b80156109425780601f1061091757610100808354040283529160200191610942565b820191906000526020600020905b81548152906001019060200180831161092557829003601f168201915b5050505050905090565b61095e610957610d39565b8383611315565b5050565b61097361096d610d39565b83610e08565b6109b2576040517f08c379a00000000000000000000000000000000000000000000000000000000081526004016109a9906125ed565b60405180910390fd5b6109be84848484611481565b50505050565b60606109cf826114dd565b610a0e576040517f08c379a0000000000000000000000000000000000000000000000000000000008152600401610a059061277d565b60405180910390fd5b6000600860008481526020019081526020016000208054610a2e90612426565b80601f0160208091040260200160405190810160405280929190818152602001828054610a5a90612426565b8015610aa75780601f10610a7c57610100808354040283529160200191610aa7565b820191906000526020600020905b815481529060010190602001808311610a8a57829003601f168201915b505050505090506000610ab861151e565b90506000815103610acd578192505050610b31565b600082511115610b02578082604051602001610aea9291906127d9565b60405160208183030381529060405292505050610b31565b80610b0c856115b0565b604051602001610b1d9291906127d9565b604051602081830303815290604052925050505b919050565b6000610b42600761167e565b6000610b4e6007610dfa565b9050610b5a3382611694565b610b6481846116b2565b80915050919050565b6000600660008473ffffffffffffffffffffffffffffffffffffffff1673ffffffffffffffffffffffffffffffffffffffff16815260200190815260200160002060008373ffffffffffffffffffffffffffffffffffffffff1673ffffffffffffffffffffffffffffffffffffffff16815260200190815260200160002060009054906101000a900460ff16905092915050565b610c09611196565b600073ffffffffffffffffffffffffffffffffffffffff168173ffffffffffffffffffffffffffffffffffffffff1603610c78576040517f08c379a0000000000000000000000000000000000000000000000000000000008152600401610c6f9061286f565b60405180910390fd5b610c8181611251565b50565b60007f01ffc9a7000000000000000000000000000000000000000000000000000000007bffffffffffffffffffffffffffffffffffffffffffffffffffffffff1916827bffffffffffffffffffffffffffffffffffffffffffffffffffffffff1916149050919050565b610cf7816114dd565b610d36576040517f08c379a0000000000000000000000000000000000000000000000000000000008152600401610d2d90612659565b60405180910390fd5b50565b600033905090565b816005600083815260200190815260200160002060006101000a81548173ffffffffffffffffffffffffffffffffffffffff021916908373ffffffffffffffffffffffffffffffffffffffff160217905550808273ffffffffffffffffffffffffffffffffffffffff16610db483610740565b73ffffffffffffffffffffffffffffffffffffffff167f8c5be1e5ebec7d5bd14f71427d1e84f3dd0314c0f7b2291e5b200ac8c7c3b92560405160405180910390a45050565b600081600001549050919050565b600080610e1483610740565b90508073ffffffffffffffffffffffffffffffffffffffff168473ffffffffffffffffffffffffffffffffffffffff161480610e565750610e558185610b6d565b5b80610e9457508373ffffffffffffffffffffffffffffffffffffffff16610e7c84610530565b73ffffffffffffffffffffffffffffffffffffffff16145b91505092915050565b8273ffffffffffffffffffffffffffffffffffffffff16610ebd82610740565b73ffffffffffffffffffffffffffffffffffffffff1614610f13576040517f08c379a0000000000000000000000000000000000000000000000000000000008152600401610f0a90612901565b60405180910390fd5b600073ffffffffffffffffffffffffffffffffffffffff168273ffffffffffffffffffffffffffffffffffffffff1603610f82576040517f08c379a0000000000000000000000000000000000000000000000000000000008152600401610f7990612993565b60405180910390fd5b610f8f8383836001611726565b8273ffffffffffffffffffffffffffffffffffffffff16610faf82610740565b73ffffffffffffffffffffffffffffffffffffffff1614611005576040517f08c379a0000000000000000000000000000000000000000000000000000000008152600401610ffc90612901565b60405180910390fd5b6005600082815260200190815260200160002060006101000a81549073ffffffffffffffffffffffffffffffffffffffff02191690556001600460008573ffffffffffffffffffffffffffffffffffffffff1673ffffffffffffffffffffffffffffffffffffffff168152602001908152602001600020600082825403925050819055506001600460008473ffffffffffffffffffffffffffffffffffffffff1673ffffffffffffffffffffffffffffffffffffffff16815260200190815260200160002060008282540192505081905550816003600083815260200190815260200160002060006101000a81548173ffffffffffffffffffffffffffffffffffffffff021916908373ffffffffffffffffffffffffffffffffffffffff160217905550808273ffffffffffffffffffffffffffffffffffffffff168473ffffffffffffffffffffffffffffffffffffffff167fddf252ad1be2c89b69c2b068fc378daa952ba7f163c4a11628f55a4df523b3ef60405160405180910390a4611191838383600161172c565b505050565b61119e610d39565b73ffffffffffffffffffffffffffffffffffffffff166111bc610891565b73ffffffffffffffffffffffffffffffffffffffff1614611212576040517f08c379a0000000000000000000000000000000000000000000000000000000008152600401611209906129ff565b60405180910390fd5b565b60006003600083815260200190815260200160002060009054906101000a900473ffffffffffffffffffffffffffffffffffffffff169050919050565b60008060009054906101000a900473ffffffffffffffffffffffffffffffffffffffff169050816000806101000a81548173ffffffffffffffffffffffffffffffffffffffff021916908373ffffffffffffffffffffffffffffffffffffffff1602179055508173ffffffffffffffffffffffffffffffffffffffff168173ffffffffffffffffffffffffffffffffffffffff167f8be0079c531659141344cd1fd0a4f28419497f9722a3daafe3b4186f6b6457e060405160405180910390a35050565b8173ffffffffffffffffffffffffffffffffffffffff168373ffffffffffffffffffffffffffffffffffffffff1603611383576040517f08c379a000000000000000000000000000000000000000000000000000000000815260040161137a90612a6b565b60405180910390fd5b80600660008573ffffffffffffffffffffffffffffffffffffffff1673ffffffffffffffffffffffffffffffffffffffff16815260200190815260200160002060008473ffffffffffffffffffffffffffffffffffffffff1673ffffffffffffffffffffffffffffffffffffffff16815260200190815260200160002060006101000a81548160ff0219169083151502179055508173ffffffffffffffffffffffffffffffffffffffff168373ffffffffffffffffffffffffffffffffffffffff167f17307eab39ab6107e8899845ad3d59bd9653f200f220920489ca2b5937696c31836040516114749190611dfe565b60405180910390a3505050565b61148c848484610e9d565b61149884848484611732565b6114d7576040517f08c379a00000000000000000000000000000000000000000000000000000000081526004016114ce90612afd565b60405180910390fd5b50505050565b60008073ffffffffffffffffffffffffffffffffffffffff166114ff83611214565b73ffffffffffffffffffffffffffffffffffffffff1614159050919050565b60606009805461152d90612426565b80601f016020809104026020016040519081016040528092919081815260200182805461155990612426565b80156115a65780601f1061157b576101008083540402835291602001916115a6565b820191906000526020600020905b81548152906001019060200180831161158957829003601f168201915b5050505050905090565b6060600060016115bf846118b9565b01905060008167ffffffffffffffff8111156115de576115dd612086565b5b6040519080825280601f01601f1916602001820160405280156116105781602001600182028036833780820191505090505b509050600082602001820190505b600115611673578080600190039150507f3031323334353637383961626364656600000000000000000000000000000000600a86061a8153600a858161166757611666612b1d565b5b0494506000850361161e575b819350505050919050565b6001816000016000828254019250508190555050565b6116ae828260405180602001604052806000815250611a0c565b5050565b6116bb826114dd565b6116fa576040517f08c379a00000000000000000000000000000000000000000000000000000000081526004016116f190612bbe565b60405180910390fd5b80600860008481526020019081526020016000209080519060200190611721929190611ca7565b505050565b50505050565b50505050565b60006117538473ffffffffffffffffffffffffffffffffffffffff16611a67565b156118ac578373ffffffffffffffffffffffffffffffffffffffff1663150b7a0261177c610d39565b8786866040518563ffffffff1660e01b815260040161179e9493929190612c33565b6020604051808303816000875af19250505080156117da57506040513d601f19601f820116820180604052508101906117d79190612c94565b60015b61185c573d806000811461180a576040519150601f19603f3d011682016040523d82523d6000602084013e61180f565b606091505b506000815103611854576040517f08c379a000000000000000000000000000000000000000000000000000000000815260040161184b90612afd565b60405180910390fd5b805181602001fd5b63150b7a0260e01b7bffffffffffffffffffffffffffffffffffffffffffffffffffffffff1916817bffffffffffffffffffffffffffffffffffffffffffffffffffffffff1916149150506118b1565b600190505b949350505050565b600080600090507a184f03e93ff9f4daa797ed6e38ed64bf6a1f0100000000000000008310611917577a184f03e93ff9f4daa797ed6e38ed64bf6a1f010000000000000000838161190d5761190c612b1d565b5b0492506040810190505b6d04ee2d6d415b85acef81000000008310611954576d04ee2d6d415b85acef8100000000838161194a57611949612b1d565b5b0492506020810190505b662386f26fc10000831061198357662386f26fc10000838161197957611978612b1d565b5b0492506010810190505b6305f5e10083106119ac576305f5e10083816119a2576119a1612b1d565b5b0492506008810190505b61271083106119d15761271083816119c7576119c6612b1d565b5b0492506004810190505b606483106119f457606483816119ea576119e9612b1d565b5b0492506002810190505b600a8310611a03576001810190505b80915050919050565b611a168383611a8a565b611a236000848484611732565b611a62576040517f08c379a0000000000000000000000000000000000000000000000000000000008152600401611a5990612afd565b60405180910390fd5b505050565b6000808273ffffffffffffffffffffffffffffffffffffffff163b119050919050565b600073ffffffffffffffffffffffffffffffffffffffff168273ffffffffffffffffffffffffffffffffffffffff1603611af9576040517f08c379a0000000000000000000000000000000000000000000000000000000008152600401611af090612d0d565b60405180910390fd5b611b02816114dd565b15611b42576040517f08c379a0000000000000000000000000000000000000000000000000000000008152600401611b3990612d79565b60405180910390fd5b611b50600083836001611726565b611b59816114dd565b15611b99576040517f08c379a0000000000000000000000000000000000000000000000000000000008152600401611b9090612d79565b60405180910390fd5b6001600460008473ffffffffffffffffffffffffffffffffffffffff1673ffffffffffffffffffffffffffffffffffffffff16815260200190815260200160002060008282540192505081905550816003600083815260200190815260200160002060006101000a81548173ffffffffffffffffffffffffffffffffffffffff021916908373ffffffffffffffffffffffffffffffffffffffff160217905550808273ffffffffffffffffffffffffffffffffffffffff16600073ffffffffffffffffffffffffffffffffffffffff167fddf252ad1be2c89b69c2b068fc378daa952ba7f163c4a11628f55a4df523b3ef60405160405180910390a4611ca360008383600161172c565b5050565b828054611cb390612426565b90600052602060002090601f016020900481019282611cd55760008555611d1c565b82601f10611cee57805160ff1916838001178555611d1c565b82800160010185558215611d1c579182015b82811115611d1b578251825591602001919060010190611d00565b5b509050611d299190611d2d565b5090565b5b80821115611d46576000816000905550600101611d2e565b5090565b6000604051905090565b600080fd5b600080fd5b60007fffffffff0000000000000000000000000000000000000000000000000000000082169050919050565b611d9381611d5e565b8114611d9e57600080fd5b50565b600081359050611db081611d8a565b92915050565b600060208284031215611dcc57611dcb611d54565b5b6000611dda84828501611da1565b91505092915050565b60008115159050919050565b611df881611de3565b82525050565b6000602082019050611e136000830184611def565b92915050565b600081519050919050565b600082825260208201905092915050565b60005b83811015611e53578082015181840152602081019050611e38565b83811115611e62576000848401525b50505050565b6000601f19601f8301169050919050565b6000611e8482611e19565b611e8e8185611e24565b9350611e9e818560208601611e35565b611ea781611e68565b840191505092915050565b60006020820190508181036000830152611ecc8184611e79565b905092915050565b6000819050919050565b611ee781611ed4565b8114611ef257600080fd5b50565b600081359050611f0481611ede565b92915050565b600060208284031215611f2057611f1f611d54565b5b6000611f2e84828501611ef5565b91505092915050565b600073ffffffffffffffffffffffffffffffffffffffff82169050919050565b6000611f6282611f37565b9050919050565b611f7281611f57565b82525050565b6000602082019050611f8d6000830184611f69565b92915050565b611f9c81611f57565b8114611fa757600080fd5b50565b600081359050611fb981611f93565b92915050565b60008060408385031215611fd657611fd5611d54565b5b6000611fe485828601611faa565b9250506020611ff585828601611ef5565b9150509250929050565b61200881611ed4565b82525050565b60006020820190506120236000830184611fff565b92915050565b60008060006060848603121561204257612041611d54565b5b600061205086828701611faa565b935050602061206186828701611faa565b925050604061207286828701611ef5565b9150509250925092565b600080fd5b600080fd5b7f4e487b7100000000000000000000000000000000000000000000000000000000600052604160045260246000fd5b6120be82611e68565b810181811067ffffffffffffffff821117156120dd576120dc612086565b5b80604052505050565b60006120f0611d4a565b90506120fc82826120b5565b919050565b600067ffffffffffffffff82111561211c5761211b612086565b5b61212582611e68565b9050602081019050919050565b82818337600083830152505050565b600061215461214f84612101565b6120e6565b9050828152602081018484840111156121705761216f612081565b5b61217b848285612132565b509392505050565b600082601f8301126121985761219761207c565b5b81356121a8848260208601612141565b91505092915050565b6000602082840312156121c7576121c6611d54565b5b600082013567ffffffffffffffff8111156121e5576121e4611d59565b5b6121f184828501612183565b91505092915050565b6000602082840312156122105761220f611d54565b5b600061221e84828501611faa565b91505092915050565b61223081611de3565b811461223b57600080fd5b50565b60008135905061224d81612227565b92915050565b6000806040838503121561226a57612269611d54565b5b600061227885828601611faa565b92505060206122898582860161223e565b9150509250929050565b600067ffffffffffffffff8211156122ae576122ad612086565b5b6122b782611e68565b9050602081019050919050565b60006122d76122d284612293565b6120e6565b9050828152602081018484840111156122f3576122f2612081565b5b6122fe848285612132565b509392505050565b600082601f83011261231b5761231a61207c565b5b813561232b8482602086016122c4565b91505092915050565b6000806000806080858703121561234e5761234d611d54565b5b600061235c87828801611faa565b945050602061236d87828801611faa565b935050604061237e87828801611ef5565b925050606085013567ffffffffffffffff81111561239f5761239e611d59565b5b6123ab87828801612306565b91505092959194509250565b600080604083850312156123ce576123cd611d54565b5b60006123dc85828601611faa565b92505060206123ed85828601611faa565b9150509250929050565b7f4e487b7100000000000000000000000000000000000000000000000000000000600052602260045260246000fd5b6000600282049050600182168061243e57607f821691505b602082108103612451576124506123f7565b5b50919050565b7f4552433732313a20617070726f76616c20746f2063757272656e74206f776e6560008201527f7200000000000000000000000000000000000000000000000000000000000000602082015250565b60006124b3602183611e24565b91506124be82612457565b604082019050919050565b600060208201905081810360008301526124e2816124a6565b9050919050565b7f4552433732313a20617070726f76652063616c6c6572206973206e6f7420746f60008201527f6b656e206f776e6572206f7220617070726f76656420666f7220616c6c000000602082015250565b6000612545603d83611e24565b9150612550826124e9565b604082019050919050565b6000602082019050818103600083015261257481612538565b9050919050565b7f4552433732313a2063616c6c6572206973206e6f7420746f6b656e206f776e6560008201527f72206f7220617070726f76656400000000000000000000000000000000000000602082015250565b60006125d7602d83611e24565b91506125e28261257b565b604082019050919050565b60006020820190508181036000830152612606816125ca565b9050919050565b7f4552433732313a20696e76616c696420746f6b656e2049440000000000000000600082015250565b6000612643601883611e24565b915061264e8261260d565b602082019050919050565b6000602082019050818103600083015261267281612636565b9050919050565b7f4552433732313a2061646472657373207a65726f206973206e6f74206120766160008201527f6c6964206f776e65720000000000000000000000000000000000000000000000602082015250565b60006126d5602983611e24565b91506126e082612679565b604082019050919050565b60006020820190508181036000830152612704816126c8565b9050919050565b7f4552433732314d657461646174613a2055524920717565727920666f72206e6f60008201527f6e6578697374656e7420746f6b656e0000000000000000000000000000000000602082015250565b6000612767602f83611e24565b91506127728261270b565b604082019050919050565b600060208201905081810360008301526127968161275a565b9050919050565b600081905092915050565b60006127b382611e19565b6127bd818561279d565b93506127cd818560208601611e35565b80840191505092915050565b60006127e582856127a8565b91506127f182846127a8565b91508190509392505050565b7f4f776e61626c653a206e6577206f776e657220697320746865207a65726f206160008201527f6464726573730000000000000000000000000000000000000000000000000000602082015250565b6000612859602683611e24565b9150612864826127fd565b604082019050919050565b600060208201905081810360008301526128888161284c565b9050919050565b7f4552433732313a207472616e736665722066726f6d20696e636f72726563742060008201527f6f776e6572000000000000000000000000000000000000000000000000000000602082015250565b60006128eb602583611e24565b91506128f68261288f565b604082019050919050565b6000602082019050818103600083015261291a816128de565b9050919050565b7f4552433732313a207472616e7366657220746f20746865207a65726f2061646460008201527f7265737300000000000000000000000000000000000000000000000000000000602082015250565b600061297d602483611e24565b915061298882612921565b604082019050919050565b600060208201905081810360008301526129ac81612970565b9050919050565b7f4f776e61626c653a2063616c6c6572206973206e6f7420746865206f776e6572600082015250565b60006129e9602083611e24565b91506129f4826129b3565b602082019050919050565b60006020820190508181036000830152612a18816129dc565b9050919050565b7f4552433732313a20617070726f766520746f2063616c6c657200000000000000600082015250565b6000612a55601983611e24565b9150612a6082612a1f565b602082019050919050565b60006020820190508181036000830152612a8481612a48565b9050919050565b7f4552433732313a207472616e7366657220746f206e6f6e20455243373231526560008201527f63656976657220696d706c656d656e7465720000000000000000000000000000602082015250565b6000612ae7603283611e24565b9150612af282612a8b565b604082019050919050565b60006020820190508181036000830152612b1681612ada565b9050919050565b7f4e487b7100000000000000000000000000000000000000000000000000000000600052601260045260246000fd5b7f4552433732314d657461646174613a2055524920736574206f66206e6f6e657860008201527f697374656e7420746f6b656e0000000000000000000000000000000000000000602082015250565b6000612ba8602c83611e24565b9150612bb382612b4c565b604082019050919050565b60006020820190508181036000830152612bd781612b9b565b9050919050565b600081519050919050565b600082825260208201905092915050565b6000612c0582612bde565b612c0f8185612be9565b9350612c1f818560208601611e35565b612c2881611e68565b840191505092915050565b6000608082019050612c486000830187611f69565b612c556020830186611f69565b612c626040830185611fff565b8181036060830152612c748184612bfa565b905095945050505050565b600081519050612c8e81611d8a565b92915050565b600060208284031215612caa57612ca9611d54565b5b6000612cb884828501612c7f565b91505092915050565b7f4552433732313a206d696e7420746f20746865207a65726f2061646472657373600082015250565b6000612cf7602083611e24565b9150612d0282612cc1565b602082019050919050565b60006020820190508181036000830152612d2681612cea565b9050919050565b7f4552433732313a20746f6b656e20616c7265616479206d696e74656400000000600082015250565b6000612d63601c83611e24565b9150612d6e82612d2d565b602082019050919050565b60006020820190508181036000830152612d9281612d56565b905091905056fea2646970667358221220d14f0c00618efd307e0779aeca012bc0472f84c700a9dff331a055fb8c7e5db564736f6c634300080e0033",
  "immutableReferences": {},
  "source": "// SPDX-License-Identifier: MIT\npragma solidity >=0.4.22 <0.9.0;\n\nimport \"@openzeppelin/contracts/token/ERC721/ERC721.sol\";\nimport \"@openzeppelin/contracts/utils/Counters.sol\";\nimport \"@openzeppelin/contracts/access/Ownable.sol\";\n\ncontract MintNFT is Ownable, ERC721 {\n    using Counters for Counters.Counter;\n    Counters.Counter private _tokenIds;\n    using Strings for uint256;\n    // Optional mapping for token URIs\n    mapping(uint256 => string) private _tokenURIs;\n\n    // Base URI\n    string private _baseURIextended;\n\n    constructor() ERC721(\"MintNFT\", \"MintNFT\") {}\n\n    // https://forum.openzeppelin.com/t/function-settokenuri-in-erc721-is-gone-with-pragma-0-8-0/5978/3\n    function setBaseURI(string memory baseURI_) external onlyOwner {\n        _baseURIextended = baseURI_;\n    }\n\n    function _setTokenURI(uint256 tokenId, string memory _tokenURI)\n        internal\n        virtual\n    {\n        require(\n            _exists(tokenId),\n            \"ERC721Metadata: URI set of nonexistent token\"\n        );\n        _tokenURIs[tokenId] = _tokenURI;\n    }\n\n    function _baseURI() internal view virtual override returns (string memory) {\n        return _baseURIextended;\n    }\n\n    function tokenURI(uint256 tokenId)\n        public\n        view\n        virtual\n        override\n        returns (string memory)\n    {\n        require(\n            _exists(tokenId),\n            \"ERC721Metadata: URI query for nonexistent token\"\n        );\n\n        string memory _tokenURI = _tokenURIs[tokenId];\n        string memory base = _baseURI();\n\n        // If there is no base URI, return the token URI.\n        if (bytes(base).length == 0) {\n            return _tokenURI;\n        }\n        // If both are set, concatenate the baseURI and tokenURI (via abi.encodePacked).\n        if (bytes(_tokenURI).length > 0) {\n            return string(abi.encodePacked(base, _tokenURI));\n        }\n        // If there is a baseURI but no tokenURI, concatenate the tokenID to the baseURI.\n        return string(abi.encodePacked(base, tokenId.toString()));\n    }\n\n    function mint(string memory tokenURIInput) public returns (uint256) {\n        _tokenIds.increment();\n        uint256 newItemId = _tokenIds.current();\n        _safeMint(msg.sender, newItemId);\n        _setTokenURI(newItemId, tokenURIInput);\n        return newItemId;\n    }\n\n    function totalSupply() public view returns (uint256) {\n        return _tokenIds.current();\n    }\n}\n",
  "sourcePath": "/home/peilunnn/Downloads/Internship Projects/source_code/dapp-auction-main/truffle/contracts/MintNFT.sol",
  "compiler": {
    "name": "solc",
    "version": "0.8.14+commit.80d49f37.Emscripten.clang"
  },
  "schemaVersion": "3.4.14",
  "updatedAt": "2023-06-13T13:54:15.942Z",
  "networkType": "ethereum",
  "devdoc": {
    "kind": "dev",
    "methods": {
      "approve(address,uint256)": {
        "details": "See {IERC721-approve}."
      },
      "balanceOf(address)": {
        "details": "See {IERC721-balanceOf}."
      },
      "getApproved(uint256)": {
        "details": "See {IERC721-getApproved}."
      },
      "isApprovedForAll(address,address)": {
        "details": "See {IERC721-isApprovedForAll}."
      },
      "name()": {
        "details": "See {IERC721Metadata-name}."
      },
      "owner()": {
        "details": "Returns the address of the current owner."
      },
      "ownerOf(uint256)": {
        "details": "See {IERC721-ownerOf}."
      },
      "renounceOwnership()": {
        "details": "Leaves the contract without owner. It will not be possible to call `onlyOwner` functions. Can only be called by the current owner. NOTE: Renouncing ownership will leave the contract without an owner, thereby disabling any functionality that is only available to the owner."
      },
      "safeTransferFrom(address,address,uint256)": {
        "details": "See {IERC721-safeTransferFrom}."
      },
      "safeTransferFrom(address,address,uint256,bytes)": {
        "details": "See {IERC721-safeTransferFrom}."
      },
      "setApprovalForAll(address,bool)": {
        "details": "See {IERC721-setApprovalForAll}."
      },
      "supportsInterface(bytes4)": {
        "details": "See {IERC165-supportsInterface}."
      },
      "symbol()": {
        "details": "See {IERC721Metadata-symbol}."
      },
      "tokenURI(uint256)": {
        "details": "See {IERC721Metadata-tokenURI}."
      },
      "transferFrom(address,address,uint256)": {
        "details": "See {IERC721-transferFrom}."
      },
      "transferOwnership(address)": {
        "details": "Transfers ownership of the contract to a new account (`newOwner`). Can only be called by the current owner."
      }
    },
    "version": 1
  },
  "userdoc": {
    "kind": "user",
    "methods": {},
    "version": 1
  }
}