{
  "contractName": "MintNFT",
  "abi": [
    {
      "inputs": [],
      "stateMutability": "nonpayable",
      "type": "constructor"
    },
    {
      "anonymous": false,
      "inputs": [
        {
          "indexed": true,
          "internalType": "address",
          "name": "owner",
          "type": "address"
        },
        {
          "indexed": true,
          "internalType": "address",
          "name": "approved",
          "type": "address"
        },
        {
          "indexed": true,
          "internalType": "uint256",
          "name": "tokenId",
          "type": "uint256"
        }
      ],
      "name": "Approval",
      "type": "event"
    },
    {
      "anonymous": false,
      "inputs": [
        {
          "indexed": true,
          "internalType": "address",
          "name": "owner",
          "type": "address"
        },
        {
          "indexed": true,
          "internalType": "address",
          "name": "operator",
          "type": "address"
        },
        {
          "indexed": false,
          "internalType": "bool",
          "name": "approved",
          "type": "bool"
        }
      ],
      "name": "ApprovalForAll",
      "type": "event"
    },
    {
      "anonymous": false,
      "inputs": [
        {
          "indexed": false,
          "internalType": "uint256",
          "name": "tokenId",
          "type": "uint256"
        }
      ],
      "name": "MintedToken",
      "type": "event"
    },
    {
      "anonymous": false,
      "inputs": [
        {
          "indexed": true,
          "internalType": "address",
          "name": "previousOwner",
          "type": "address"
        },
        {
          "indexed": true,
          "internalType": "address",
          "name": "newOwner",
          "type": "address"
        }
      ],
      "name": "OwnershipTransferred",
      "type": "event"
    },
    {
      "anonymous": false,
      "inputs": [
        {
          "indexed": true,
          "internalType": "address",
          "name": "from",
          "type": "address"
        },
        {
          "indexed": true,
          "internalType": "address",
          "name": "to",
          "type": "address"
        },
        {
          "indexed": true,
          "internalType": "uint256",
          "name": "tokenId",
          "type": "uint256"
        }
      ],
      "name": "Transfer",
      "type": "event"
    },
    {
      "inputs": [
        {
          "internalType": "address",
          "name": "to",
          "type": "address"
        },
        {
          "internalType": "uint256",
          "name": "tokenId",
          "type": "uint256"
        }
      ],
      "name": "approve",
      "outputs": [],
      "stateMutability": "nonpayable",
      "type": "function"
    },
    {
      "inputs": [
        {
          "internalType": "address",
          "name": "owner",
          "type": "address"
        }
      ],
      "name": "balanceOf",
      "outputs": [
        {
          "internalType": "uint256",
          "name": "",
          "type": "uint256"
        }
      ],
      "stateMutability": "view",
      "type": "function",
      "constant": true
    },
    {
      "inputs": [
        {
          "internalType": "uint256",
          "name": "tokenId",
          "type": "uint256"
        }
      ],
      "name": "getApproved",
      "outputs": [
        {
          "internalType": "address",
          "name": "",
          "type": "address"
        }
      ],
      "stateMutability": "view",
      "type": "function",
      "constant": true
    },
    {
      "inputs": [
        {
          "internalType": "address",
          "name": "owner",
          "type": "address"
        },
        {
          "internalType": "address",
          "name": "operator",
          "type": "address"
        }
      ],
      "name": "isApprovedForAll",
      "outputs": [
        {
          "internalType": "bool",
          "name": "",
          "type": "bool"
        }
      ],
      "stateMutability": "view",
      "type": "function",
      "constant": true
    },
    {
      "inputs": [],
      "name": "name",
      "outputs": [
        {
          "internalType": "string",
          "name": "",
          "type": "string"
        }
      ],
      "stateMutability": "view",
      "type": "function",
      "constant": true
    },
    {
      "inputs": [],
      "name": "owner",
      "outputs": [
        {
          "internalType": "address",
          "name": "",
          "type": "address"
        }
      ],
      "stateMutability": "view",
      "type": "function",
      "constant": true
    },
    {
      "inputs": [
        {
          "internalType": "uint256",
          "name": "tokenId",
          "type": "uint256"
        }
      ],
      "name": "ownerOf",
      "outputs": [
        {
          "internalType": "address",
          "name": "",
          "type": "address"
        }
      ],
      "stateMutability": "view",
      "type": "function",
      "constant": true
    },
    {
      "inputs": [],
      "name": "renounceOwnership",
      "outputs": [],
      "stateMutability": "nonpayable",
      "type": "function"
    },
    {
      "inputs": [
        {
          "internalType": "address",
          "name": "from",
          "type": "address"
        },
        {
          "internalType": "address",
          "name": "to",
          "type": "address"
        },
        {
          "internalType": "uint256",
          "name": "tokenId",
          "type": "uint256"
        }
      ],
      "name": "safeTransferFrom",
      "outputs": [],
      "stateMutability": "nonpayable",
      "type": "function"
    },
    {
      "inputs": [
        {
          "internalType": "address",
          "name": "from",
          "type": "address"
        },
        {
          "internalType": "address",
          "name": "to",
          "type": "address"
        },
        {
          "internalType": "uint256",
          "name": "tokenId",
          "type": "uint256"
        },
        {
          "internalType": "bytes",
          "name": "data",
          "type": "bytes"
        }
      ],
      "name": "safeTransferFrom",
      "outputs": [],
      "stateMutability": "nonpayable",
      "type": "function"
    },
    {
      "inputs": [
        {
          "internalType": "address",
          "name": "operator",
          "type": "address"
        },
        {
          "internalType": "bool",
          "name": "approved",
          "type": "bool"
        }
      ],
      "name": "setApprovalForAll",
      "outputs": [],
      "stateMutability": "nonpayable",
      "type": "function"
    },
    {
      "inputs": [
        {
          "internalType": "bytes4",
          "name": "interfaceId",
          "type": "bytes4"
        }
      ],
      "name": "supportsInterface",
      "outputs": [
        {
          "internalType": "bool",
          "name": "",
          "type": "bool"
        }
      ],
      "stateMutability": "view",
      "type": "function",
      "constant": true
    },
    {
      "inputs": [],
      "name": "symbol",
      "outputs": [
        {
          "internalType": "string",
          "name": "",
          "type": "string"
        }
      ],
      "stateMutability": "view",
      "type": "function",
      "constant": true
    },
    {
      "inputs": [
        {
          "internalType": "address",
          "name": "from",
          "type": "address"
        },
        {
          "internalType": "address",
          "name": "to",
          "type": "address"
        },
        {
          "internalType": "uint256",
          "name": "tokenId",
          "type": "uint256"
        }
      ],
      "name": "transferFrom",
      "outputs": [],
      "stateMutability": "nonpayable",
      "type": "function"
    },
    {
      "inputs": [
        {
          "internalType": "address",
          "name": "newOwner",
          "type": "address"
        }
      ],
      "name": "transferOwnership",
      "outputs": [],
      "stateMutability": "nonpayable",
      "type": "function"
    },
    {
      "inputs": [
        {
          "internalType": "string",
          "name": "baseURI_",
          "type": "string"
        }
      ],
      "name": "setBaseURI",
      "outputs": [],
      "stateMutability": "nonpayable",
      "type": "function"
    },
    {
      "inputs": [
        {
          "internalType": "uint256",
          "name": "tokenId",
          "type": "uint256"
        }
      ],
      "name": "tokenURI",
      "outputs": [
        {
          "internalType": "string",
          "name": "",
          "type": "string"
        }
      ],
      "stateMutability": "view",
      "type": "function",
      "constant": true
    },
    {
      "inputs": [
        {
          "internalType": "string",
          "name": "tokenURIInput",
          "type": "string"
        }
      ],
      "name": "mint",
      "outputs": [
        {
          "internalType": "uint256",
          "name": "",
          "type": "uint256"
        }
      ],
      "stateMutability": "nonpayable",
      "type": "function"
    },
    {
      "inputs": [],
      "name": "totalSupply",
      "outputs": [
        {
          "internalType": "uint256",
          "name": "",
          "type": "uint256"
        }
      ],
      "stateMutability": "view",
      "type": "function",
      "constant": true
    }
  ],
  "bytecode": "0x60806040523480156200001157600080fd5b506040518060400160405280600781526020017f4d696e744e4654000000000000000000000000000000000000000000000000008152506040518060400160405280600781526020017f4d696e744e4654000000000000000000000000000000000000000000000000008152506200009e62000092620000d860201b60201c565b620000e060201b60201c565b8160019080519060200190620000b6929190620001a4565b508060029080519060200190620000cf929190620001a4565b505050620002b8565b600033905090565b60008060009054906101000a900473ffffffffffffffffffffffffffffffffffffffff169050816000806101000a81548173ffffffffffffffffffffffffffffffffffffffff021916908373ffffffffffffffffffffffffffffffffffffffff1602179055508173ffffffffffffffffffffffffffffffffffffffff168173ffffffffffffffffffffffffffffffffffffffff167f8be0079c531659141344cd1fd0a4f28419497f9722a3daafe3b4186f6b6457e060405160405180910390a35050565b828054620001b29062000283565b90600052602060002090601f016020900481019282620001d6576000855562000222565b82601f10620001f157805160ff191683800117855562000222565b8280016001018555821562000222579182015b828111156200022157825182559160200191906001019062000204565b5b50905062000231919062000235565b5090565b5b808211156200025057600081600090555060010162000236565b5090565b7f4e487b7100000000000000000000000000000000000000000000000000000000600052602260045260246000fd5b600060028204905060018216806200029c57607f821691505b602082108103620002b257620002b162000254565b5b50919050565b612e0680620002c86000396000f3fe608060405234801561001057600080fd5b50600436106101215760003560e01c806370a08231116100ad578063b88d4fde11610071578063b88d4fde146102f4578063c87b56dd14610310578063d85d3d2714610340578063e985e9c514610370578063f2fde38b146103a057610121565b806370a0823114610262578063715018a6146102925780638da5cb5b1461029c57806395d89b41146102ba578063a22cb465146102d857610121565b806318160ddd116100f457806318160ddd146101c057806323b872dd146101de57806342842e0e146101fa57806355f804b3146102165780636352211e1461023257610121565b806301ffc9a71461012657806306fdde0314610156578063081812fc14610174578063095ea7b3146101a4575b600080fd5b610140600480360381019061013b9190611ded565b6103bc565b60405161014d9190611e35565b60405180910390f35b61015e61049e565b60405161016b9190611ee9565b60405180910390f35b61018e60048036038101906101899190611f41565b610530565b60405161019b9190611faf565b60405180910390f35b6101be60048036038101906101b99190611ff6565b610576565b005b6101c861068d565b6040516101d59190612045565b60405180910390f35b6101f860048036038101906101f39190612060565b61069e565b005b610214600480360381019061020f9190612060565b6106fe565b005b610230600480360381019061022b91906121e8565b61071e565b005b61024c60048036038101906102479190611f41565b610740565b6040516102599190611faf565b60405180910390f35b61027c60048036038101906102779190612231565b6107c6565b6040516102899190612045565b60405180910390f35b61029a61087d565b005b6102a4610891565b6040516102b19190611faf565b60405180910390f35b6102c26108ba565b6040516102cf9190611ee9565b60405180910390f35b6102f260048036038101906102ed919061228a565b61094c565b005b61030e6004803603810190610309919061236b565b610962565b005b61032a60048036038101906103259190611f41565b6109c4565b6040516103379190611ee9565b60405180910390f35b61035a600480360381019061035591906121e8565b610b36565b6040516103679190612045565b60405180910390f35b61038a600480360381019061038591906123ee565b610ba4565b6040516103979190611e35565b60405180910390f35b6103ba60048036038101906103b59190612231565b610c38565b005b60007f80ac58cd000000000000000000000000000000000000000000000000000000007bffffffffffffffffffffffffffffffffffffffffffffffffffffffff1916827bffffffffffffffffffffffffffffffffffffffffffffffffffffffff1916148061048757507f5b5e139f000000000000000000000000000000000000000000000000000000007bffffffffffffffffffffffffffffffffffffffffffffffffffffffff1916827bffffffffffffffffffffffffffffffffffffffffffffffffffffffff1916145b80610497575061049682610cbb565b5b9050919050565b6060600180546104ad9061245d565b80601f01602080910402602001604051908101604052809291908181526020018280546104d99061245d565b80156105265780601f106104fb57610100808354040283529160200191610526565b820191906000526020600020905b81548152906001019060200180831161050957829003601f168201915b5050505050905090565b600061053b82610d25565b6005600083815260200190815260200160002060009054906101000a900473ffffffffffffffffffffffffffffffffffffffff169050919050565b600061058182610740565b90508073ffffffffffffffffffffffffffffffffffffffff168373ffffffffffffffffffffffffffffffffffffffff16036105f1576040517f08c379a00000000000000000000000000000000000000000000000000000000081526004016105e890612500565b60405180910390fd5b8073ffffffffffffffffffffffffffffffffffffffff16610610610d70565b73ffffffffffffffffffffffffffffffffffffffff16148061063f575061063e81610639610d70565b610ba4565b5b61067e576040517f08c379a000000000000000000000000000000000000000000000000000000000815260040161067590612592565b60405180910390fd5b6106888383610d78565b505050565b60006106996007610e31565b905090565b6106af6106a9610d70565b82610e3f565b6106ee576040517f08c379a00000000000000000000000000000000000000000000000000000000081526004016106e590612624565b60405180910390fd5b6106f9838383610ed4565b505050565b61071983838360405180602001604052806000815250610962565b505050565b6107266111cd565b806009908051906020019061073c929190611cde565b5050565b60008061074c8361124b565b9050600073ffffffffffffffffffffffffffffffffffffffff168173ffffffffffffffffffffffffffffffffffffffff16036107bd576040517f08c379a00000000000000000000000000000000000000000000000000000000081526004016107b490612690565b60405180910390fd5b80915050919050565b60008073ffffffffffffffffffffffffffffffffffffffff168273ffffffffffffffffffffffffffffffffffffffff1603610836576040517f08c379a000000000000000000000000000000000000000000000000000000000815260040161082d90612722565b60405180910390fd5b600460008373ffffffffffffffffffffffffffffffffffffffff1673ffffffffffffffffffffffffffffffffffffffff168152602001908152602001600020549050919050565b6108856111cd565b61088f6000611288565b565b60008060009054906101000a900473ffffffffffffffffffffffffffffffffffffffff16905090565b6060600280546108c99061245d565b80601f01602080910402602001604051908101604052809291908181526020018280546108f59061245d565b80156109425780601f1061091757610100808354040283529160200191610942565b820191906000526020600020905b81548152906001019060200180831161092557829003601f168201915b5050505050905090565b61095e610957610d70565b838361134c565b5050565b61097361096d610d70565b83610e3f565b6109b2576040517f08c379a00000000000000000000000000000000000000000000000000000000081526004016109a990612624565b60405180910390fd5b6109be848484846114b8565b50505050565b60606109cf82611514565b610a0e576040517f08c379a0000000000000000000000000000000000000000000000000000000008152600401610a05906127b4565b60405180910390fd5b6000600860008481526020019081526020016000208054610a2e9061245d565b80601f0160208091040260200160405190810160405280929190818152602001828054610a5a9061245d565b8015610aa75780601f10610a7c57610100808354040283529160200191610aa7565b820191906000526020600020905b815481529060010190602001808311610a8a57829003601f168201915b505050505090506000610ab8611555565b90506000815103610acd578192505050610b31565b600082511115610b02578082604051602001610aea929190612810565b60405160208183030381529060405292505050610b31565b80610b0c856115e7565b604051602001610b1d929190612810565b604051602081830303815290604052925050505b919050565b6000610b4260076116b5565b6000610b4e6007610e31565b9050610b5a33826116cb565b610b6481846116e9565b7f8326550246953047c534d6573a2cb6c34604bed6414d392c57903eba61be772d81604051610b939190612045565b60405180910390a180915050919050565b6000600660008473ffffffffffffffffffffffffffffffffffffffff1673ffffffffffffffffffffffffffffffffffffffff16815260200190815260200160002060008373ffffffffffffffffffffffffffffffffffffffff1673ffffffffffffffffffffffffffffffffffffffff16815260200190815260200160002060009054906101000a900460ff16905092915050565b610c406111cd565b600073ffffffffffffffffffffffffffffffffffffffff168173ffffffffffffffffffffffffffffffffffffffff1603610caf576040517f08c379a0000000000000000000000000000000000000000000000000000000008152600401610ca6906128a6565b60405180910390fd5b610cb881611288565b50565b60007f01ffc9a7000000000000000000000000000000000000000000000000000000007bffffffffffffffffffffffffffffffffffffffffffffffffffffffff1916827bffffffffffffffffffffffffffffffffffffffffffffffffffffffff1916149050919050565b610d2e81611514565b610d6d576040517f08c379a0000000000000000000000000000000000000000000000000000000008152600401610d6490612690565b60405180910390fd5b50565b600033905090565b816005600083815260200190815260200160002060006101000a81548173ffffffffffffffffffffffffffffffffffffffff021916908373ffffffffffffffffffffffffffffffffffffffff160217905550808273ffffffffffffffffffffffffffffffffffffffff16610deb83610740565b73ffffffffffffffffffffffffffffffffffffffff167f8c5be1e5ebec7d5bd14f71427d1e84f3dd0314c0f7b2291e5b200ac8c7c3b92560405160405180910390a45050565b600081600001549050919050565b600080610e4b83610740565b90508073ffffffffffffffffffffffffffffffffffffffff168473ffffffffffffffffffffffffffffffffffffffff161480610e8d5750610e8c8185610ba4565b5b80610ecb57508373ffffffffffffffffffffffffffffffffffffffff16610eb384610530565b73ffffffffffffffffffffffffffffffffffffffff16145b91505092915050565b8273ffffffffffffffffffffffffffffffffffffffff16610ef482610740565b73ffffffffffffffffffffffffffffffffffffffff1614610f4a576040517f08c379a0000000000000000000000000000000000000000000000000000000008152600401610f4190612938565b60405180910390fd5b600073ffffffffffffffffffffffffffffffffffffffff168273ffffffffffffffffffffffffffffffffffffffff1603610fb9576040517f08c379a0000000000000000000000000000000000000000000000000000000008152600401610fb0906129ca565b60405180910390fd5b610fc6838383600161175d565b8273ffffffffffffffffffffffffffffffffffffffff16610fe682610740565b73ffffffffffffffffffffffffffffffffffffffff161461103c576040517f08c379a000000000000000000000000000000000000000000000000000000000815260040161103390612938565b60405180910390fd5b6005600082815260200190815260200160002060006101000a81549073ffffffffffffffffffffffffffffffffffffffff02191690556001600460008573ffffffffffffffffffffffffffffffffffffffff1673ffffffffffffffffffffffffffffffffffffffff168152602001908152602001600020600082825403925050819055506001600460008473ffffffffffffffffffffffffffffffffffffffff1673ffffffffffffffffffffffffffffffffffffffff16815260200190815260200160002060008282540192505081905550816003600083815260200190815260200160002060006101000a81548173ffffffffffffffffffffffffffffffffffffffff021916908373ffffffffffffffffffffffffffffffffffffffff160217905550808273ffffffffffffffffffffffffffffffffffffffff168473ffffffffffffffffffffffffffffffffffffffff167fddf252ad1be2c89b69c2b068fc378daa952ba7f163c4a11628f55a4df523b3ef60405160405180910390a46111c88383836001611763565b505050565b6111d5610d70565b73ffffffffffffffffffffffffffffffffffffffff166111f3610891565b73ffffffffffffffffffffffffffffffffffffffff1614611249576040517f08c379a000000000000000000000000000000000000000000000000000000000815260040161124090612a36565b60405180910390fd5b565b60006003600083815260200190815260200160002060009054906101000a900473ffffffffffffffffffffffffffffffffffffffff169050919050565b60008060009054906101000a900473ffffffffffffffffffffffffffffffffffffffff169050816000806101000a81548173ffffffffffffffffffffffffffffffffffffffff021916908373ffffffffffffffffffffffffffffffffffffffff1602179055508173ffffffffffffffffffffffffffffffffffffffff168173ffffffffffffffffffffffffffffffffffffffff167f8be0079c531659141344cd1fd0a4f28419497f9722a3daafe3b4186f6b6457e060405160405180910390a35050565b8173ffffffffffffffffffffffffffffffffffffffff168373ffffffffffffffffffffffffffffffffffffffff16036113ba576040517f08c379a00000000000000000000000000000000000000000000000000000000081526004016113b190612aa2565b60405180910390fd5b80600660008573ffffffffffffffffffffffffffffffffffffffff1673ffffffffffffffffffffffffffffffffffffffff16815260200190815260200160002060008473ffffffffffffffffffffffffffffffffffffffff1673ffffffffffffffffffffffffffffffffffffffff16815260200190815260200160002060006101000a81548160ff0219169083151502179055508173ffffffffffffffffffffffffffffffffffffffff168373ffffffffffffffffffffffffffffffffffffffff167f17307eab39ab6107e8899845ad3d59bd9653f200f220920489ca2b5937696c31836040516114ab9190611e35565b60405180910390a3505050565b6114c3848484610ed4565b6114cf84848484611769565b61150e576040517f08c379a000000000000000000000000000000000000000000000000000000000815260040161150590612b34565b60405180910390fd5b50505050565b60008073ffffffffffffffffffffffffffffffffffffffff166115368361124b565b73ffffffffffffffffffffffffffffffffffffffff1614159050919050565b6060600980546115649061245d565b80601f01602080910402602001604051908101604052809291908181526020018280546115909061245d565b80156115dd5780601f106115b2576101008083540402835291602001916115dd565b820191906000526020600020905b8154815290600101906020018083116115c057829003601f168201915b5050505050905090565b6060600060016115f6846118f0565b01905060008167ffffffffffffffff811115611615576116146120bd565b5b6040519080825280601f01601f1916602001820160405280156116475781602001600182028036833780820191505090505b509050600082602001820190505b6001156116aa578080600190039150507f3031323334353637383961626364656600000000000000000000000000000000600a86061a8153600a858161169e5761169d612b54565b5b04945060008503611655575b819350505050919050565b6001816000016000828254019250508190555050565b6116e5828260405180602001604052806000815250611a43565b5050565b6116f282611514565b611731576040517f08c379a000000000000000000000000000000000000000000000000000000000815260040161172890612bf5565b60405180910390fd5b80600860008481526020019081526020016000209080519060200190611758929190611cde565b505050565b50505050565b50505050565b600061178a8473ffffffffffffffffffffffffffffffffffffffff16611a9e565b156118e3578373ffffffffffffffffffffffffffffffffffffffff1663150b7a026117b3610d70565b8786866040518563ffffffff1660e01b81526004016117d59493929190612c6a565b6020604051808303816000875af192505050801561181157506040513d601f19601f8201168201806040525081019061180e9190612ccb565b60015b611893573d8060008114611841576040519150601f19603f3d011682016040523d82523d6000602084013e611846565b606091505b50600081510361188b576040517f08c379a000000000000000000000000000000000000000000000000000000000815260040161188290612b34565b60405180910390fd5b805181602001fd5b63150b7a0260e01b7bffffffffffffffffffffffffffffffffffffffffffffffffffffffff1916817bffffffffffffffffffffffffffffffffffffffffffffffffffffffff1916149150506118e8565b600190505b949350505050565b600080600090507a184f03e93ff9f4daa797ed6e38ed64bf6a1f010000000000000000831061194e577a184f03e93ff9f4daa797ed6e38ed64bf6a1f010000000000000000838161194457611943612b54565b5b0492506040810190505b6d04ee2d6d415b85acef8100000000831061198b576d04ee2d6d415b85acef8100000000838161198157611980612b54565b5b0492506020810190505b662386f26fc1000083106119ba57662386f26fc1000083816119b0576119af612b54565b5b0492506010810190505b6305f5e10083106119e3576305f5e10083816119d9576119d8612b54565b5b0492506008810190505b6127108310611a085761271083816119fe576119fd612b54565b5b0492506004810190505b60648310611a2b5760648381611a2157611a20612b54565b5b0492506002810190505b600a8310611a3a576001810190505b80915050919050565b611a4d8383611ac1565b611a5a6000848484611769565b611a99576040517f08c379a0000000000000000000000000000000000000000000000000000000008152600401611a9090612b34565b60405180910390fd5b505050565b6000808273ffffffffffffffffffffffffffffffffffffffff163b119050919050565b600073ffffffffffffffffffffffffffffffffffffffff168273ffffffffffffffffffffffffffffffffffffffff1603611b30576040517f08c379a0000000000000000000000000000000000000000000000000000000008152600401611b2790612d44565b60405180910390fd5b611b3981611514565b15611b79576040517f08c379a0000000000000000000000000000000000000000000000000000000008152600401611b7090612db0565b60405180910390fd5b611b8760008383600161175d565b611b9081611514565b15611bd0576040517f08c379a0000000000000000000000000000000000000000000000000000000008152600401611bc790612db0565b60405180910390fd5b6001600460008473ffffffffffffffffffffffffffffffffffffffff1673ffffffffffffffffffffffffffffffffffffffff16815260200190815260200160002060008282540192505081905550816003600083815260200190815260200160002060006101000a81548173ffffffffffffffffffffffffffffffffffffffff021916908373ffffffffffffffffffffffffffffffffffffffff160217905550808273ffffffffffffffffffffffffffffffffffffffff16600073ffffffffffffffffffffffffffffffffffffffff167fddf252ad1be2c89b69c2b068fc378daa952ba7f163c4a11628f55a4df523b3ef60405160405180910390a4611cda600083836001611763565b5050565b828054611cea9061245d565b90600052602060002090601f016020900481019282611d0c5760008555611d53565b82601f10611d2557805160ff1916838001178555611d53565b82800160010185558215611d53579182015b82811115611d52578251825591602001919060010190611d37565b5b509050611d609190611d64565b5090565b5b80821115611d7d576000816000905550600101611d65565b5090565b6000604051905090565b600080fd5b600080fd5b60007fffffffff0000000000000000000000000000000000000000000000000000000082169050919050565b611dca81611d95565b8114611dd557600080fd5b50565b600081359050611de781611dc1565b92915050565b600060208284031215611e0357611e02611d8b565b5b6000611e1184828501611dd8565b91505092915050565b60008115159050919050565b611e2f81611e1a565b82525050565b6000602082019050611e4a6000830184611e26565b92915050565b600081519050919050565b600082825260208201905092915050565b60005b83811015611e8a578082015181840152602081019050611e6f565b83811115611e99576000848401525b50505050565b6000601f19601f8301169050919050565b6000611ebb82611e50565b611ec58185611e5b565b9350611ed5818560208601611e6c565b611ede81611e9f565b840191505092915050565b60006020820190508181036000830152611f038184611eb0565b905092915050565b6000819050919050565b611f1e81611f0b565b8114611f2957600080fd5b50565b600081359050611f3b81611f15565b92915050565b600060208284031215611f5757611f56611d8b565b5b6000611f6584828501611f2c565b91505092915050565b600073ffffffffffffffffffffffffffffffffffffffff82169050919050565b6000611f9982611f6e565b9050919050565b611fa981611f8e565b82525050565b6000602082019050611fc46000830184611fa0565b92915050565b611fd381611f8e565b8114611fde57600080fd5b50565b600081359050611ff081611fca565b92915050565b6000806040838503121561200d5761200c611d8b565b5b600061201b85828601611fe1565b925050602061202c85828601611f2c565b9150509250929050565b61203f81611f0b565b82525050565b600060208201905061205a6000830184612036565b92915050565b60008060006060848603121561207957612078611d8b565b5b600061208786828701611fe1565b935050602061209886828701611fe1565b92505060406120a986828701611f2c565b9150509250925092565b600080fd5b600080fd5b7f4e487b7100000000000000000000000000000000000000000000000000000000600052604160045260246000fd5b6120f582611e9f565b810181811067ffffffffffffffff82111715612114576121136120bd565b5b80604052505050565b6000612127611d81565b905061213382826120ec565b919050565b600067ffffffffffffffff821115612153576121526120bd565b5b61215c82611e9f565b9050602081019050919050565b82818337600083830152505050565b600061218b61218684612138565b61211d565b9050828152602081018484840111156121a7576121a66120b8565b5b6121b2848285612169565b509392505050565b600082601f8301126121cf576121ce6120b3565b5b81356121df848260208601612178565b91505092915050565b6000602082840312156121fe576121fd611d8b565b5b600082013567ffffffffffffffff81111561221c5761221b611d90565b5b612228848285016121ba565b91505092915050565b60006020828403121561224757612246611d8b565b5b600061225584828501611fe1565b91505092915050565b61226781611e1a565b811461227257600080fd5b50565b6000813590506122848161225e565b92915050565b600080604083850312156122a1576122a0611d8b565b5b60006122af85828601611fe1565b92505060206122c085828601612275565b9150509250929050565b600067ffffffffffffffff8211156122e5576122e46120bd565b5b6122ee82611e9f565b9050602081019050919050565b600061230e612309846122ca565b61211d565b90508281526020810184848401111561232a576123296120b8565b5b612335848285612169565b509392505050565b600082601f830112612352576123516120b3565b5b81356123628482602086016122fb565b91505092915050565b6000806000806080858703121561238557612384611d8b565b5b600061239387828801611fe1565b94505060206123a487828801611fe1565b93505060406123b587828801611f2c565b925050606085013567ffffffffffffffff8111156123d6576123d5611d90565b5b6123e28782880161233d565b91505092959194509250565b6000806040838503121561240557612404611d8b565b5b600061241385828601611fe1565b925050602061242485828601611fe1565b9150509250929050565b7f4e487b7100000000000000000000000000000000000000000000000000000000600052602260045260246000fd5b6000600282049050600182168061247557607f821691505b6020821081036124885761248761242e565b5b50919050565b7f4552433732313a20617070726f76616c20746f2063757272656e74206f776e6560008201527f7200000000000000000000000000000000000000000000000000000000000000602082015250565b60006124ea602183611e5b565b91506124f58261248e565b604082019050919050565b60006020820190508181036000830152612519816124dd565b9050919050565b7f4552433732313a20617070726f76652063616c6c6572206973206e6f7420746f60008201527f6b656e206f776e6572206f7220617070726f76656420666f7220616c6c000000602082015250565b600061257c603d83611e5b565b915061258782612520565b604082019050919050565b600060208201905081810360008301526125ab8161256f565b9050919050565b7f4552433732313a2063616c6c6572206973206e6f7420746f6b656e206f776e6560008201527f72206f7220617070726f76656400000000000000000000000000000000000000602082015250565b600061260e602d83611e5b565b9150612619826125b2565b604082019050919050565b6000602082019050818103600083015261263d81612601565b9050919050565b7f4552433732313a20696e76616c696420746f6b656e2049440000000000000000600082015250565b600061267a601883611e5b565b915061268582612644565b602082019050919050565b600060208201905081810360008301526126a98161266d565b9050919050565b7f4552433732313a2061646472657373207a65726f206973206e6f74206120766160008201527f6c6964206f776e65720000000000000000000000000000000000000000000000602082015250565b600061270c602983611e5b565b9150612717826126b0565b604082019050919050565b6000602082019050818103600083015261273b816126ff565b9050919050565b7f4552433732314d657461646174613a2055524920717565727920666f72206e6f60008201527f6e6578697374656e7420746f6b656e0000000000000000000000000000000000602082015250565b600061279e602f83611e5b565b91506127a982612742565b604082019050919050565b600060208201905081810360008301526127cd81612791565b9050919050565b600081905092915050565b60006127ea82611e50565b6127f481856127d4565b9350612804818560208601611e6c565b80840191505092915050565b600061281c82856127df565b915061282882846127df565b91508190509392505050565b7f4f776e61626c653a206e6577206f776e657220697320746865207a65726f206160008201527f6464726573730000000000000000000000000000000000000000000000000000602082015250565b6000612890602683611e5b565b915061289b82612834565b604082019050919050565b600060208201905081810360008301526128bf81612883565b9050919050565b7f4552433732313a207472616e736665722066726f6d20696e636f72726563742060008201527f6f776e6572000000000000000000000000000000000000000000000000000000602082015250565b6000612922602583611e5b565b915061292d826128c6565b604082019050919050565b6000602082019050818103600083015261295181612915565b9050919050565b7f4552433732313a207472616e7366657220746f20746865207a65726f2061646460008201527f7265737300000000000000000000000000000000000000000000000000000000602082015250565b60006129b4602483611e5b565b91506129bf82612958565b604082019050919050565b600060208201905081810360008301526129e3816129a7565b9050919050565b7f4f776e61626c653a2063616c6c6572206973206e6f7420746865206f776e6572600082015250565b6000612a20602083611e5b565b9150612a2b826129ea565b602082019050919050565b60006020820190508181036000830152612a4f81612a13565b9050919050565b7f4552433732313a20617070726f766520746f2063616c6c657200000000000000600082015250565b6000612a8c601983611e5b565b9150612a9782612a56565b602082019050919050565b60006020820190508181036000830152612abb81612a7f565b9050919050565b7f4552433732313a207472616e7366657220746f206e6f6e20455243373231526560008201527f63656976657220696d706c656d656e7465720000000000000000000000000000602082015250565b6000612b1e603283611e5b565b9150612b2982612ac2565b604082019050919050565b60006020820190508181036000830152612b4d81612b11565b9050919050565b7f4e487b7100000000000000000000000000000000000000000000000000000000600052601260045260246000fd5b7f4552433732314d657461646174613a2055524920736574206f66206e6f6e657860008201527f697374656e7420746f6b656e0000000000000000000000000000000000000000602082015250565b6000612bdf602c83611e5b565b9150612bea82612b83565b604082019050919050565b60006020820190508181036000830152612c0e81612bd2565b9050919050565b600081519050919050565b600082825260208201905092915050565b6000612c3c82612c15565b612c468185612c20565b9350612c56818560208601611e6c565b612c5f81611e9f565b840191505092915050565b6000608082019050612c7f6000830187611fa0565b612c8c6020830186611fa0565b612c996040830185612036565b8181036060830152612cab8184612c31565b905095945050505050565b600081519050612cc581611dc1565b92915050565b600060208284031215612ce157612ce0611d8b565b5b6000612cef84828501612cb6565b91505092915050565b7f4552433732313a206d696e7420746f20746865207a65726f2061646472657373600082015250565b6000612d2e602083611e5b565b9150612d3982612cf8565b602082019050919050565b60006020820190508181036000830152612d5d81612d21565b9050919050565b7f4552433732313a20746f6b656e20616c7265616479206d696e74656400000000600082015250565b6000612d9a601c83611e5b565b9150612da582612d64565b602082019050919050565b60006020820190508181036000830152612dc981612d8d565b905091905056fea2646970667358221220b257f7c0ae8a8d5093776ac640f4331d9a014b8967884d8ea73e2f48526d2f4b64736f6c634300080e0033",
  "immutableReferences": {},
  "source": "// SPDX-License-Identifier: MIT\npragma solidity >=0.4.22 <0.9.0;\n\nimport \"@openzeppelin/contracts/token/ERC721/ERC721.sol\";\nimport \"@openzeppelin/contracts/utils/Counters.sol\";\nimport \"@openzeppelin/contracts/access/Ownable.sol\";\n\ncontract MintNFT is Ownable, ERC721 {\n    using Counters for Counters.Counter;\n    Counters.Counter private _tokenIds;\n    using Strings for uint256;\n\n    event MintedToken(uint256 tokenId);\n\n    // Optional mapping for token URIs\n    mapping(uint256 => string) private _tokenURIs;\n\n    string private _baseURIextended;\n\n    constructor() ERC721(\"MintNFT\", \"MintNFT\") {}\n\n    /**\n     * @dev Sets the base URI for all token IDs.\n     * Only the contract owner can set the base URI.\n     * @param baseURI_ The base URI to be set.\n     */\n    function setBaseURI(string memory baseURI_) external onlyOwner {\n        _baseURIextended = baseURI_;\n    }\n\n    /**\n     * @dev Internal function to set the token URI for a given token ID.\n     * Reverts if the token ID does not exist.\n     * @param tokenId The ID of the token.\n     * @param _tokenURI The token URI to be set.\n     */\n    function _setTokenURI(\n        uint256 tokenId,\n        string memory _tokenURI\n    ) internal virtual {\n        require(\n            _exists(tokenId),\n            \"ERC721Metadata: URI set of nonexistent token\"\n        );\n        _tokenURIs[tokenId] = _tokenURI;\n    }\n\n    /**\n     * @dev Returns the base URI for all token IDs.\n     * Override the internal function in ERC721.\n     * @return The base URI.\n     */\n    function _baseURI() internal view virtual override returns (string memory) {\n        return _baseURIextended;\n    }\n\n    /**\n     * @dev Returns the token URI for a given token ID.\n     * Reverts if the token ID does not exist.\n     * @param tokenId The ID of the token.\n     * @return The token URI.\n     */\n    function tokenURI(\n        uint256 tokenId\n    ) public view virtual override returns (string memory) {\n        require(\n            _exists(tokenId),\n            \"ERC721Metadata: URI query for nonexistent token\"\n        );\n\n        string memory _tokenURI = _tokenURIs[tokenId];\n        string memory base = _baseURI();\n\n        // If there is no base URI, return the token URI\n        if (bytes(base).length == 0) {\n            return _tokenURI;\n        }\n\n        // If both are set, concatenate the baseURI and tokenURI\n        if (bytes(_tokenURI).length > 0) {\n            return string(abi.encodePacked(base, _tokenURI));\n        }\n\n        // If there is a baseURI but no tokenURI, concatenate tokenId to the baseURI\n        return string(abi.encodePacked(base, tokenId.toString()));\n    }\n\n    /**\n     * @dev Mints a new NFT and assigns it to the sender's address.\n     * Increments the token ID counter, mints the token, sets its token URI,\n     * and returns the new token ID.\n     * @param tokenURIInput The token URI to be associated with the new token.\n     * @return The new token ID.\n     */\n    function mint(string memory tokenURIInput) public returns (uint256) {\n        _tokenIds.increment();\n        uint256 newItemId = _tokenIds.current();\n        _safeMint(msg.sender, newItemId);\n        _setTokenURI(newItemId, tokenURIInput);\n        emit MintedToken(newItemId);\n        return newItemId;\n    }\n\n    /**\n     * @dev Returns the total number of NFTs that have been minted.\n     * @return The total supply of NFTs.\n     */\n    function totalSupply() public view returns (uint256) {\n        return _tokenIds.current();\n    }\n}\n",
  "sourcePath": "/home/peilunnn/Downloads/Internship Projects/gcp-dapp-auction/truffle/contracts/MintNFT.sol",
  "compiler": {
    "name": "solc",
    "version": "0.8.14+commit.80d49f37.Emscripten.clang"
  },
  "schemaVersion": "3.4.14",
  "updatedAt": "2023-07-03T07:00:20.930Z",
  "networkType": "ethereum",
  "devdoc": {
    "kind": "dev",
    "methods": {
      "approve(address,uint256)": {
        "details": "See {IERC721-approve}."
      },
      "balanceOf(address)": {
        "details": "See {IERC721-balanceOf}."
      },
      "getApproved(uint256)": {
        "details": "See {IERC721-getApproved}."
      },
      "isApprovedForAll(address,address)": {
        "details": "See {IERC721-isApprovedForAll}."
      },
      "mint(string)": {
        "details": "Mints a new NFT and assigns it to the sender's address. Increments the token ID counter, mints the token, sets its token URI, and returns the new token ID.",
        "params": {
          "tokenURIInput": "The token URI to be associated with the new token."
        },
        "returns": {
          "_0": "The new token ID."
        }
      },
      "name()": {
        "details": "See {IERC721Metadata-name}."
      },
      "owner()": {
        "details": "Returns the address of the current owner."
      },
      "ownerOf(uint256)": {
        "details": "See {IERC721-ownerOf}."
      },
      "renounceOwnership()": {
        "details": "Leaves the contract without owner. It will not be possible to call `onlyOwner` functions. Can only be called by the current owner. NOTE: Renouncing ownership will leave the contract without an owner, thereby disabling any functionality that is only available to the owner."
      },
      "safeTransferFrom(address,address,uint256)": {
        "details": "See {IERC721-safeTransferFrom}."
      },
      "safeTransferFrom(address,address,uint256,bytes)": {
        "details": "See {IERC721-safeTransferFrom}."
      },
      "setApprovalForAll(address,bool)": {
        "details": "See {IERC721-setApprovalForAll}."
      },
      "setBaseURI(string)": {
        "details": "Sets the base URI for all token IDs. Only the contract owner can set the base URI.",
        "params": {
          "baseURI_": "The base URI to be set."
        }
      },
      "supportsInterface(bytes4)": {
        "details": "See {IERC165-supportsInterface}."
      },
      "symbol()": {
        "details": "See {IERC721Metadata-symbol}."
      },
      "tokenURI(uint256)": {
        "details": "Returns the token URI for a given token ID. Reverts if the token ID does not exist.",
        "params": {
          "tokenId": "The ID of the token."
        },
        "returns": {
          "_0": "The token URI."
        }
      },
      "totalSupply()": {
        "details": "Returns the total number of NFTs that have been minted.",
        "returns": {
          "_0": "The total supply of NFTs."
        }
      },
      "transferFrom(address,address,uint256)": {
        "details": "See {IERC721-transferFrom}."
      },
      "transferOwnership(address)": {
        "details": "Transfers ownership of the contract to a new account (`newOwner`). Can only be called by the current owner."
      }
    },
    "version": 1
  },
  "userdoc": {
    "kind": "user",
    "methods": {},
    "version": 1
  }
}